:100000000C94145A0C94435A0C94435A0C94435A2B
:100010000C94435A0C94435A0C94435A0C94435AEC
:100020000C94435A0C94435A0C9452710C941D72C4
:100030000C94435A0C94435A0C94435A0C94435ACC
:100040000C9443640C94B2630C94E9640C94435A8A
:100050000C94435A0C94435A0C94435A0C94516E8A
:100060000C94435A0C947F620C94AA620C94D9624B
:100070000C94435A0C94435A0C94435A0C94435A8C
:100080000C94435A0C94435A0C94435A0C94435A7C
:100090000C94435A0C94435A7D729F728E739F72D4
:1000A0008E73E17200738E7354736673085E0A5E1A
:1000B0000C5E0E5E105E125E145E165E38034D001E
:1000C0006100740069006100730020005400610049
:1000D0006300740069006C0065002000500072002D
:1000E0006F0020004B006500790062006F00610026
:1000F0007200640000000E034D006100740069008E
:1001000061007300000004030904090252000301A6
:10011000008032090402000208065000070583022D
:10012000400000070504024000000904000001032C
:10013000010100092111010001223F00070581038F
:1001400008000A090401000103010100092111014D
:1001500000012223000705820308000A09023B0070
:10016000020100803209040000010301010009219D
:1001700011010001223F000705810308000A09045C
:1001800001000103010100092111010001222300E6
:100190000705820308000A1201100100000008D9B7
:1001A00004504200000102DC010600FF0901A10128
:1001B000150026FF008501750895400900B202016F
:1001C0008502751095800900B20201C0050109067B
:1001D000A10175019508050719E029E7150025011A
:1001E00081029501750881039505750105081901BE
:1001F000290591029501750391039506750815006F
:1002000025650507190029658100C0012902290417
:100210002908291029202940298029012C022C0194
:100220002602260426082610262026402680264060
:100230002C802C0123022304230823102320234095
:1002400023802301200220042008201020202040A9
:10025000208020102C202C012F022F042F082F107B
:100260002F202F402F802F7EFE7EFD7EFB7EF77E8F
:10027000EF7EDF7EBF7E7F060006000600060006DA
:10028000000600060006000600060006000600063E
:10029000000600060006000600060006000600062E
:1002A000000600060006000600060006000600061E
:1002B000000600060006000600060006000600060E
:1002C00000060006000600060006000600060006FE
:1002D00000060006000600060006000600060006EE
:1002E00000060006000600060006000600060006DE
:1002F000000600060006008000E40008000600007A
:100300000200020800060010000600060006000EAB
:10031000000600060006000E000600060006000E9D
:10032000000600060006000E00060006000600E0BB
:100330000006000600060014010600060006004242
:1003400000060006000600E2014000060006000666
:100350000006000600060000020002000200020083
:10036000020002000200020002000200020002007D
:10037000020002000200020002000200020002006D
:10038000020002000200020002000200020002005D
:10039000020002000200020002000200020002004D
:1003A000020002000200020002000200020002003D
:1003B000020002000200020002000200020002002D
:1003C000020002000200020002000200020002001D
:1003D00002000200020002000200020002BA00064F
:1003E00000060006000600000200020002000200F3
:1003F00002000200020002F20006000600060006EB
:100400000006000600060000020002000246004E40
:10041000010002920006001FB419B413B40DB40712
:10042000B401B4FBB3F5B3EFB3E9B3E3B3DDB3D7D2
:10043000B3D1B3CBB3C5B3BFB3B9B3B3B3ADB3A744
:10044000B3A1B39BB395B38FB389B383B37DB377B4
:10045000B371B36BB365B35FB359B353B34DB34724
:10046000B341B33BB335B32FB329B323B31DB31794
:10047000B311B30BB305B3FFB2F9B2F3B2EDB2E708
:10048000B2E1B2DBB2D5B2CFB2C9B2C3B2BDB2B77C
:10049000B2B1B2ABB2A5B225B241B139B133B133C9
:1004A000AF33AD2BAD25AD15AD0FAD09AD03ADF53A
:1004B000ACEFACE9ACE3ACD5ACCFACC9ACC3ACB53C
:1004C000ACAFACA9ACA3AC95AC8FAC89AC83ACA3FE
:1004D000AB9DAB97AB91AB7DAA77AA71AA6BAA290A
:1004E000AA23AA1DAA17AA35A8F5A7EFA7E9A7E38B
:1004F000A7DDA7D7A7D1A7D1A5D1A3D1A1D19FD13E
:100500009DD19BD199D197D195D193D191D18FD1B3
:100510008DD18BD189D187D185D183D181D17FD123
:100520007DD17BD179D177D175D173D171D16FD193
:100530006DD16BD169D167D165D163D161D15FD103
:100540005DD15BD159D157D155D153D151D14FD173
:100550004DD14BD149D147D145D143D141D13FD1E3
:100560003DD13BD139D137D135D133D131D12FD153
:100570002DD12BD129D127D125D123D1211721113B
:10058000210B210521FF20FF1EFF1CFF1AFF18FF72
:1005900016FF14FF12FF100D1007100110FB0FF5CE
:1005A0000FEF0FE90FE30FE30DE30BE3099D094F95
:1005B000084F06BD05B705FF00FF00020008000157
:1005C0008101FE0600014001FE060001B5010302A3
:1005D0000001C101A301DA01A3012017000181017B
:1005E000FE0600014101FE060001B6010302000102
:1005F000CF01A201E401A2011A010001E501A2015B
:10060000E801A2015B1100018101FE060001400129
:100610007E01A101FE04000151010502000151010A
:10062000DA015E01DA01200100015F01DA016A01ED
:10063000DA01321100018101D301D801DE01E001AC
:10064000F902000131017E018101FEFF005D0079A8
:10065000000000A4A240007A00000094A24000FC28
:1006600000000090A24000FF00000080A24000D9DE
:10067000924000D9924000D9924000D9924000D9CE
:10068000924000D9924000000000000000000001EC
:10069000000000160000000200000002000000033D
:1006A0000000000200000004000000180000000527
:1006B0000000000D00000006000000090000000717
:1006C0000000000C000000080000000C0000000901
:1006D0000000000C0000000A000000070000000BF2
:1006E000000000080000000C000000160000000DD3
:1006F000000000160000000F0000000200000010C3
:100700000000000D000000110000001200000012A7
:1007100000000002000000210000000D0000003574
:1007200000000002000000410000000D0000004336
:100730000000000200000050000000110000005204
:100740000000000D000000530000000D00000057E5
:1007500000000016000000590000000B0000006CB3
:100760000000000D0000006D00000020000000707F
:100770000000001C000000720000000900000006DC
:1007800000000016000000800000000A0000008148
:100790000000000A00000082000000090000008341
:1007A00000000016000000840000000D0000009111
:1007B000000000290000009E0000000D000000A1C4
:1007C00000000002000000A40000000B000000A7D1
:1007D0000000000D000000B700000011000000CE76
:1007E00000000002000000D70000000B000000180D
:1007F0000700000C000000000000000000000001E5
:1008000002040800000000A4030000608279822135
:1008100000000000000000A6DF000000000000A1B2
:10082000A5000000000000819FE0FC0000000040E7
:100830007E80FC00000000A8030000C1A3DAA32012
:10084000000000000000000000000000000000D0D8
:100850000004FF0100010A020001200109012D012D
:100860000D015D0300015D0F0001DD018B01400DF5
:100870000001CC01720140010001CC017201400174
:10088000000105020001C0010B0700011D0200016B
:10089000C0010407000196020001C0010407000125
:1008A0008D020001C001080700018E020001C00195
:1008B000080700018F020001C00108070001900233
:1008C0000001C0010807000191020001C0010807F2
:1008D000000192020001C00108070001930200011B
:1008E000C0010807000103030001070300010A0318
:1008F00000018C03000102030001E401A401400196
:10090000000108030001B801A4014001000109032E
:1009100000018C01A401400100010A0300016801EB
:10092000A40140010001100300013C01A4014001A9
:100930000001110300010C01A40140010001120398
:100940000001E801A3014001000113030001BC0103
:10095000A30140010001180300018401A30140012B
:100960000001190300015C01A301400100011A0309
:1009700000012401A301400100011B030001EC015F
:10098000A201400100011C030001C401A2014001B9
:10099000000178030001B401A2014001002C000114
:1009A000010300012E030001010C0001A20140011E
:1009B0000001F001A101400100018001D2014005C8
:1009C00000018001D20140010002010B0001101260
:1009D000000102030001011B00010203000102FFEC
:1009E00000680020059319000000000000000000CE
:1009F000000000514340000200000010000000F819
:100A00000300002AC440002AC44000000020002047
:100A100000200020002000200020002000200028CE
:100A200000280028002800280020002000200020A6
:100A300000200020002000200020002000200020B6
:100A4000002000200020002000200020004800108E
:100A50000010001000100010001000100010001016
:100A6000001000100010001000100010008400841E
:100A70000084008400840084008400840084008456
:100A80000010001000100010001000100010008175
:100A900000810081008100810081000100010001CE
:100AA000000100010001000100010001000100013E
:100AB000000100010001000100010001000100012E
:100AC0000001001000100010001000100010008243
:100AD0000082008200820082008200020002000286
:100AE00000020002000200020002000200020002F6
:100AF00000020002000200020002000200020002E6
:100B00000002001000100010001000200000000083
:100B100000000000000000000000000000000000D5
:100B200000000000000000000000000000000000C5
:100B300000000000000000000000000000000000B5
:100B400000000000000000000000000000000000A5
:100B50000000000000000000000000000000000095
:100B60000000000000000000000000000000000085
:100B70000000000000000000000000000000000075
:100B80000000000000000000000000000000000065
:100B90000000000000000000000000000000000055
:100BA0000000000000000000000000000000000045
:100BB0000000000000000000000000000000000035
:100BC0000000000000000000000000000000000025
:100BD0000000000000000000000000000000000015
:100BE000000000656E206465766963650A00005543
:100BF0006E61626C6520746F2073656E6420612085
:100C000066656174757265207265706F72742E0A04
:100C1000000000256C7300556E61626C6520746F76
:100C20002067657420612066656174757265207245
:100C300065706F72742E0A000000000A0000004305
:100C4000726561746550726F636573730000004371
:100C50003A5C57696E646F77735C53797374656D32
:100C600033325C636D642E65786500256400003066
:100C70000000007262000046696C6520636F6E744C
:100C8000656E7420726563656976656420636F6D57
:100C9000706C65746525642F25640A0000000046A9
:100CA000696C6520636F6E74656E74207265636530
:100CB0006976652074696D656F75740A0000004679
:100CC000696C6520636F6E74656E74207265636510
:100CD000697665206572726F720A0046696C6520DC
:100CE000636F6E74656E74207265636569766564A2
:100CF0002025642F25640A0000000046696C6520E9
:100D00006C656E6774682069732025642C202573D8
:100D10000A000077620000537461727420746F20BF
:100D200066696C6520726563656976650A000069AD
:100D3000006D006100670065002F006A00700065AB
:100D400000670000000000444953504C4159004ED8
:100D50006F20736570657261746F720A0000004ED7
:100D60006F7420636F6D6D616E640A000000004354
:100D70006170747572652053637265656E3E0A001A
:100D80000000005075742046696C653E2025730A8A
:100D90000000004765742046696C653E2025730A93
:100DA000000000457865637574653E2025730A0070
:100DB00000000047657420446174610A000000432C
:100DC0006F6D6D616E642072656365697665207410
:100DD00068726561642073746172740A00000000B7
:100DE000000000000000000000000000000000B74C
:100DF0004F400041914000238C4000000000000063
:100E00000000005C504000000000000000000034C2
:100E10008C40000000000000000000000000000006
:100E2000000000D8043F00486964445F4765744887
:100E300069644775696400486964505F4765744335
:100E400061707300000000486964445F4672656524
:100E5000507265706172736564446174610000482A
:100E60006964445F4765745072657061727365644C
:100E700044617461000000486964445F47657449D7
:100E80006E6465786564537472696E67000000482B
:100E90006964445F476574466561747572650048AE
:100EA0006964445F53657446656174757265004892
:100EB0006964445F47657450726F647563745374FA
:100EC00072696E67000000486964445F4765744D4D
:100ED000616E756661637475726572537472696E62
:100EE000670000486964445F4765745365726961CF
:100EF0006C4E756D626572537472696E670000485E
:100F00006964445F4765744174747269627574659D
:100F10007300006869642E646C6C00266D695F0064
:100F20000000002558000025582C2025642C202581
:100F3000642C2025642C2025642C2025640A004381
:100F4000726561746546696C650000577269746505
:100F500046696C650000004765744F7665726C6188
:100F600070706564526573756C740053656E6420AF
:100F700046656174757265205265706F72742047A2
:100F800065744F7665724C617070656452657375F7
:100F90006C740053656E64204665617475726520DB
:100FA0005265706F727420446576696365496F435A
:100FB0006F6E74726F6C006A040000D9040000D96F
:100FC0000400005E040000110000005042000050C8
:100FD000420000F8FF0000756E61626C6520746F5E
:100FE000206F70FF00FF000200FF00FF000200FF03
:100FF00000FF000200FF00FF000200FF00FF0002F0
:1010000000FF00FF000200FF00FF000200015F017F
:1010100073017401720169016E01670100016801C9
:10102000690164015F0169016E01690174010001D8
:101030006801690164015F016F01700165016E0162
:1010400000016801690164015F016F0170016501C0
:101050006E015F01700161017401680100016801A6
:10106000690164015F0172016501610164010001B0
:101070006801690164015F01720165016101640138
:101080005F01740169016D0165016F0175017401F2
:1010900000016801690164015F01730165016E016E
:1010A00064015F01660165016101740175017201EE
:1010B00065015F017201650170016F0172017401C8
:1010C00000016801690164015F0173016501740138
:1010D0005F016E016F016E0162016C016F016301BE
:1010E0006B0169016E01670100016801690164011A
:1010F0005F01770172016901740165FF008A007068
:1011000074696F6E46696C7465720033024973428C
:101110006164526561645074720000300249734228
:101120006164436F64655074720000040147657424
:101130004350496E666F00FD00476574414350009F
:101140000093014765744F454D4350000010035311
:101150006574456E644F6646696C6500000000006A
:10116000000000B8632557000000003CAF000001FC
:10117000000000120000001200000088AE0000D045
:10118000AE000018AF0000901B000090110000B0EE
:101190001C00006011000060150000E01A000070E3
:1011A0001C0000B01B0000F01B0000301C00000001
:1011B000100000B015000030160000601A0000504A
:1011C000190000A01A0000801A0000401800004A10
:1011D000AF000054AF000062AF00006CAF000075BC
:1011E000AF00008AAF0000A1AF0000B8AF0000D48C
:1011F000AF0000EBAF000008B0000011B000001A13
:10120000B0000028B0000031B0000042B000005A29
:10121000B000006EB00000000001000200030004F6
:1012200000050006000700080009000A000B000C7A
:10123000000D000E000F0010001100546573744182
:1012400067656E742E657865006869645F636C6FAE
:101250007365006869645F656E756D65726174655C
:10126000006869645F6572726F72006869645F65C7
:10127000786974006869645F667265655F656E753C
:101280006D65726174696F6E006869645F6765742B
:101290005F666561747572655F7265706F72740008
:1012A0006869645F6765745F696E64657865645FCB
:1012B000737472696E67006869645F6765745F6DF7
:1012C000616E7566616374757265725F737472695D
:1012D0006E67006869645F6765745F70726F6475DC
:1012E00063745F737472696E67006869645F6765D1
:1012F000745F73657269616C5F6E756D62657200B3
:1013000000B9004578697450726F63657373001497
:10131000024865617044657374726F790012024807
:10132000656170437265617465000083035669727C
:101330007475616C467265650081035669727475D7
:10134000616C416C6C6F6300001A024865617052F9
:1013500065416C6C6F630036024973426164577279
:10136000697465507472005E035465726D696E61D4
:10137000746550726F636573730000420147657452
:1013800043757272656E7450726F63657373002477
:101390000353657448616E646C65436F756E7400C9
:1013A00000660147657446696C6554797065001B79
:1013B0000353657446696C65506F696E746572009D
:1013C000006E03556E68616E646C65644578636594
:1013D0007074696F6E46696C74657200007D0147B8
:1013E00065744D6F64756C6546696C654E616D65BD
:1013F000410000F60046726565456E7669726F6E53
:101400006D656E74537472696E67734100F70046C0
:10141000726565456E7669726F6E6D656E74537434
:1014200072696E6773570094035769646543686116
:1014300072546F4D756C746942797465005501473B
:101440006574456E7669726F6E6D656E74537472F5
:10145000696E6773005701476574456E7669726FF0
:101460006E6D656E74537472696E677357000075A4
:10147000024D756C746942797465546F576964657F
:10148000436861720044024C434D61705374726949
:101490006E6741000045024C434D617053747269A0
:1014A0006E67570000BA01476574537472696E67BE
:1014B00054797065410000BD0147657453747269C9
:1014C0006E67547970655700003703536574537421
:1014D0006448616E646C650000EE00466C7573686C
:1014E00046696C654275666665727300004A03530F
:1014F0006574556E68616E646C6564457863656596
:10150000617465436F6D70617469626C654443001A
:10151000002E0043726561746544434100474449AD
:1015200033322E646C6C00830043726561746553C2
:10153000747265616D4F6E48476C6F62616C006FCD
:101540006C6533322E646C6C001D015365747570CC
:10155000446944657374726F79446576696365495B
:101560006E666F4C69737400004701536574757043
:101570004469476574446576696365496E7465724C
:101580006661636544657461696C410000210153C3
:10159000657475704469456E756D446576696365FB
:1015A000496E7465726661636573003101536574D9
:1015B00075704469476574436C61737344657673F1
:1015C00041000053455455504150492E646C6C0005
:1015D000000F0147646970476574496D616765452F
:1015E0006E636F6465727300001001476469704731
:1015F0006574496D616765456E636F6465727353A9
:10160000697A6500008E0047646970446973706F81
:101610007365496D6167650000DD0147646970535A
:10162000617665496D616765546F53747265616D6C
:10163000004500476469704372656174654269746E
:101640006D617046726F6D484249544D41500021A2
:101650000047646970416C6C6F63003100476469D6
:1016600070436C6F6E65496D6167650000E000470F
:101670006469704672656500006002476469706C59
:101680007573537461727475700000676469706C6F
:1016900075732E646C6C0016024865617046726545
:1016A000650000100248656170416C6C6F6300D783
:1016B0000252746C556E77696E64007F01476574E1
:1016C0004D6F64756C6548616E646C65410000B770
:1016D0000147657453746172747570496E666F4129
:1016E000001001476574436F6D6D616E644C696EE7
:1016F000654100E80147657456657273696F6E4C09
:101700006F61644C696272617279410000F8004651
:101710007265654C696272617279003400436C6F66
:10172000736548616E646C650071014765744C6156
:1017300073744572726F7200005300437265617476
:101740006546696C6541004F00437265617465458B
:1017500076656E744100005C024C6F63616C46728A
:10176000656500F400466F726D61744D6573736159
:10177000676557000094014765744F7665726C6128
:1017800070706564526573756C7400A40357726958
:10179000746546696C6500900357616974466F72A1
:1017A00053696E676C654F626A656374002A004313
:1017B000616E63656C496F0000B5025265616446F5
:1017C000696C650000CF0252657365744576656E7D
:1017D0007400008A00446576696365496F436F6EE3
:1017E00074726F6C008D024F75747075744465620D
:1017F0007567537472696E674100005603536C65D8
:10180000657000B90147657453746448616E646C17
:10181000650000660043726561746550726F6365B0
:101820007373410000250353657448616E646C65F1
:10183000496E666F726D6174696F6E00006500437A
:101840007265617465506970650000DF01476574F9
:101850005469636B436F756E740000D501476574FE
:1018600054656D70506174684100005F0354657287
:101870006D696E617465546872656164006F0043E0
:10188000726561746554687265616400004B45520D
:101890004E454C33322E646C6C00008F0044656CF6
:1018A0006574654F626A65637400008C0044656C02
:1018B000657465444300001200426974426C740010
:1018C000000E0253656C6563744F626A6563740051
:1018D000002C00437265617465436F6D70617469BB
:1018E000626C654269746D617000006B01476574DC
:1018F00044657669636543617073002D0043729C93
:10190000A6000000000000000000008EA9000024D6
:10191000A0000078A6000000000000000000001EEB
:10192000AA000000A00000E4A700000000000000E2
:1019300000000040AA00006CA10000A8A700000061
:1019400000000000000000C4AA000030A10000BC9C
:10195000A7000000000000000000008CAB00004465
:10196000A1000000000000000000000000000000D6
:1019700000000000000000FCA90000ECA90000D25B
:10198000A90000C2A90000B8A90000ACA900009CF1
:10199000A9000012AA00000000000076A800008C38
:1019A000A8000098A80000AEA80000BAA80000C6D1
:1019B000A80000D4A80000E6A8000064A800000465
:1019C000A9000014A9000026A900003EA900004CAF
:1019D000A900005CA900006CA900007EA9000058C5
:1019E000A8000048A800003AA800002AA800001C8F
:1019F000A800000EA80000FEA70000FCA80000EC54
:101A0000A700004EAE000042AE000038AE00002C31
:101A1000AE00001CAE00000CAE0000EEAD0000DA1F
:101A2000AD0000CAAD0000B8AD0000A6AD00009644
:101A3000AD000086AD000070AD000056AD00003E68
:101A4000AD000098AB0000A4AB0000B0AB0000BC40
:101A5000AB0000D0AB0000E2AB0000F4AB00000232
:101A6000AC000010AC00001EAC00002CAC00003A32
:101A7000AC00004AAC000058AC000068AC00007C30
:101A8000AC000090AC0000A2AC0000B0AC0000C202
:101A9000AC0000DEAC0000F4AC00000EAD0000288D
:101AA000AD0000000000004AAA00008EAA0000ACB1
:101AB000AA00006AAA00000000000050AB0000EA83
:101AC000AA0000D2AA00005CAB00006EAB00007A56
:101AD000AB000006AB00001AAB000032AB00000008
:101AE00000000028AA000000000000A00147657463
:101AF00050726F6341646472657373000052022018
:101B00006572726F720D0A00000000523630313774
:101B10000D0A2D20756E6578706563746564206D9F
:101B2000756C7469746872656164206C6F636B2096
:101B30006572726F720D0A00000000523630313645
:101B40000D0A2D206E6F7420656E6F7567682073A7
:101B50007061636520666F722074687265616420CD
:101B6000646174610D0A000D0A61626E6F726D61CD
:101B70006C2070726F6772616D207465726D696E32
:101B80006174696F6E0D0A00000000523630303902
:101B90000D0A2D206E6F7420656E6F756768207357
:101BA0007061636520666F7220656E7669726F6E14
:101BB0006D656E740D0A0052363030380D0A2D20D6
:101BC0006E6F7420656E6F756768207370616365F2
:101BD00020666F7220617267756D656E74730D0A91
:101BE00000000052363030320D0A2D20666C6F61D5
:101BF00074696E6720706F696E74206E6F74206CEC
:101C00006F616465640D0A000000004D6963726FC6
:101C1000736F66742056697375616C20432B2B209B
:101C200052756E74696D65204C69627261727900DB
:101C30000000000A0A000052756E74696D65204547
:101C400072726F72210A0A50726F6772616D3A2068
:101C50000000002E2E2E003C70726F6772616D20A6
:101C60006E616D6520756E6B6E6F776E3E00000065
:101C700000000000000000FFFFFFFF45804000491A
:101C8000804000FFFFFFFFF9804000FD804000FF23
:101C9000FFFFFF7D824000818240004765744C61F8
:101CA0007374416374697665506F70757000004796
:101CB000657441637469766557696E646F77004D2A
:101CC000657373616765426F784100757365723340
:101CD000322E646C6C00002005931901000000F89E
:101CE000A54000000000000000000000000000000F
:101CF00000000000000000FFFFFFFF50964000289A
:101D00006E756C6C290000FFFFFFFF296E400033E9
:101D10006E400000000000FFFFFFFF00000000AF6A
:101D20006F4000000000008D6F4000976F4000FF83
:101D3000FFFFFFDF714000E371400000000000FF83
:101D4000FFFFFF417240004A72400000000000FFA8
:101D5000FFFFFF000000001D7340000000000009AD
:101D60007340000D734000FFFFFFFF000000007391
:101D7000734000000000005F734000637340007216
:101D8000756E74696D65206572726F722000000D4A
:101D90000A0000544C4F5353206572726F720D0A43
:101DA00000000053494E47206572726F720D0A00A1
:101DB000000000444F4D41494E206572726F720D14
:101DC0000A000052363032380D0A2D20756E6162DD
:101DD0006C6520746F20696E697469616C697A65DD
:101DE00020686561700D0A000000005236303237FD
:101DF0000D0A2D206E6F7420656E6F7567682073F5
:101E00007061636520666F72206C6F77696F2069FF
:101E10006E697469616C697A6174696F6E0D0A002C
:101E200000000052363032360D0A2D206E6F7420BD
:101E3000656E6F75676820737061636520666F7289
:101E400020737464696F20696E697469616C697A62
:101E50006174696F6E0D0A00000000523630323531
:101E60000D0A2D2070757265207669727475616C2B
:101E70002066756E6374696F6E2063616C6C0D0A09
:101E800000000052363032340D0A2D206E6F74205F
:101E9000656E6F75676820737061636520666F7229
:101EA000205F6F6E657869742F617465786974203E
:101EB0007461626C650D0A000000005236303139E1
:101EC0000D0A2D20756E61626C6520746F206F7035
:101ED000656E20636F6E736F6C65206465766963F1
:101EE000650D0A0000000052363031380D0A2D20F1
:101EF000756E65787065637465642068656170FCF3
:101F0000A90000ECA90000D2A90000C2A90000B8F5
:101F1000A90000ACA900009CA9000012AA000000C2
:101F200000000076A800008CA8000098A80000AE71
:101F3000A80000BAA80000C6A80000D4A80000E6C7
:101F4000A8000064A8000004A9000014A90000264D
:101F5000A900003EA900004CA900005CA900006C8B
:101F6000A900007EA9000058A8000048A800003A77
:101F7000A800002AA800001CA800000EA80000FE6F
:101F8000A70000FCA80000ECA700004EAE00004235
:101F9000AE000038AE00002CAE00001CAE00000CFD
:101FA000AE0000EEAD0000DAAD0000CAAD0000B832
:101FB000AD0000A6AD000096AD000086AD0000703B
:101FC000AD000056AD00003EAD000098AB0000A48F
:101FD000AB0000B0AB0000BCAB0000D0AB0000E237
:101FE000AB0000F4AB000002AC000010AC00001E1F
:101FF000AC00002CAC00003AAC00004AAC00005829
:10200000AC000068AC00007CAC000090AC0000A20A
:10201000AC0000B0AC0000C2AC0000DEAC0000F4CC
:10202000AC00000EAD000028AD0000000000004A2A
:10203000AA00008EAA0000ACAA00006AAA00000054
:1020400000000050AB0000EAAA0000D2AA00005C29
:10205000AB00006EAB00007AAB000006AB00001ACC
:10206000AB000032AB00000000000028AA00000016
:1020700000000000000000C0274000402740009002
:1020800027400040274000FFFFFFFF263A40003A6C
:102090003A400006000006000100001000030600A0
:1020A0000602100445454505050505053530005077
:1020B00000000000202838505807080037303057FB
:1020C00050070000202008000000000860686060E1
:1020D0006060000070707878787808070800000762
:1020E0000008080800000800080007080000002891
:1020F000006E0075006C006C00290000000000FFFD
:1021000000FF000200FF00FF000200FF00FF0002CE
:1021100000FF00FF000200010A01C70105013C01A8
:10212000CD0140010001090300018301C801FF0145
:102130005E01C301FF0125014C01A1014001000125
:10214000FF0125014801A10140010001FF01250116
:102150005C01A10140010001FF0125016001A10115
:1021600040010001FF0125016401A10140010001BE
:10217000FF0125014401A10140010001FF012501EA
:102180005001A10140010001FF0125015401A101FD
:1021900040010001FF0125015801A101400100019A
:1021A000FF012501D401A00140010004CC018D01F3
:1021B0004D019401E90188019102FF01B801D801A4
:1021C000A50140010001E9015A019F02FFFF009FA4
:1021D0000040CD40006A00FF750853E811C7FFFFBB
:1021E00083C40C8BC65FEB0DC7053CCD40000900D6
:1021F000000083C8FF5E5BC9C3558BEC56578B7DCF
:10220000088BC7484874594848744683E8047441A9
:1022100083E803743C83E804742A83E8067418484E
:10222000740883C8FFE9F80000008B3508CF400030
:10223000B808CF4000EB348B3504CF4000B804CF52
:102240004000EB278B350CCF4000B80CCF4000EBA3
:102250001A57E8CF0000008B700883C00859EB0BB9
:102260008B3500CF4000B800CF400083FE017507DA
:1022700033C0E9AB00000085F675076A03E8A0AE3D
:10228000FFFF536A08593BF9740A83FF0B740583F7
:10229000FF0475268B1DACCD40008325ACCD4000DE
:1022A000003BF975448B158CC94000C7058CC940AB
:1022B000008C000000895508EB038B5D083BF97525
:1022C00028A180C940008B0D84C9400003C83BC1D0
:1022D0007D1E8D14402BC88D149510C9400083229B
:1022E0000083C20C4975F7EB078320003BF9750E9C
:1022F000FF358CC940006A08FFD65959EB0E57FFCD
:10230000D683FF0B59740583FF04751383FF088977
:102310001DACCD400075088B4508A38CC940003327
:10232000C05B5F5E5DC38B5424048B0D88C9400085
:1023300039150CC9400056B808C9400074168D34D0
:10234000498D34B508C9400083C00C3BC6730539BC
:10235000500475F48D0C495E8D0C8D08C940003B0E
:10236000C17305395004740233C0C38B442404562E
:102370003B0560D24000735A8BC883E01FC1F9054A
:102380008B0C8D60D140008D54C1048A4CC104F681
:10239000C101743E8AC1BE0080000025800000009B
:1023A0003974240C750580E17FEB0D817C240C00D1
:1023B000400000751180C980F7D81BC0880A6625C7
:1023C00000C003C65EC3C7053CCD40001600000038
:1023D000EBF0FF33C28B1183C104A90001018174AA
:1023E000E184D2743484F67427F7C20000FF0074CD
:1023F00012F7C2000000FF7402EBC789178B442458
:10240000085FC36689178B442408C64702005FC370
:102410006689178B4424085FC388178B4424085FA0
:10242000C35333DB391DF0CE40005657754268CC9C
:10243000A54000FF1580A040008BF83BFB74678B24
:102440003588A0400068C0A5400057FFD685C0A3CE
:10245000F0CE4000745068B0A5400057FFD6689C8D
:10246000A5400057A3F4CE4000FFD6A3F8CE40000D
:10247000A1F4CE400085C07416FFD08BD885DB74E4
:102480000EA1F8CE400085C0740553FFD08BD8FF55
:10249000742418FF742418FF74241853FF15F0CE09
:1024A00040005F5E5BC333C0EBF86A02E865A7FFDC
:1024B000FF59C3558BECB800100000E831A6FFFFB0
:1024C000538B5D085633F63B1D60D240000F8315D9
:1024D0000100008BC38BCBC1F80583E11F8B048502
:1024E00060D14000F644C804010F84F90000006A7E
:1024F000015653E8F9C7FFFF83C40C83F8FF8945F1
:10250000080F84EB0000006A025653E8E1C7FFFFA2
:1025100083C40C83F8FF0F84D6000000578B7D0C1A
:102520002BF885FF7E6F68001000008D8500F0FF9E
:10253000FF5650E809B3FFFF680080000053E82809
:1025400002000083C41489450CB8001000003BF859
:102550007D028BC7508D8500F0FFFF5053E811CAF4
:10256000FFFF83C40C83F8FF74082BF885FF7E18E7
:10257000EBD7833D40CD400005750AC7053CCD40F3
:10258000000D00000083CEFFFF750C53E8DA010058
:10259000005959EB407D3E6A00FF750C53E84FC768
:1025A000FFFF53E8F7F2FFFF83C41050FF158CA024
:1025B00040008BF0F7DE1BF6F7DE4E83FEFF75154D
:1025C000C7053CCD40000D000000FF1574A0400081
:1025D000A353578D55F30FB60A0FB6C03BC1771DF5
:1025E0002BC88DBC05ECFEFFFF41B8202020208BBE
:1025F000D9C1E902F3AB8BCB83E103F3AA42428A50
:1026000042FF84C075D05F5B6A008D85ECFAFFFFE6
:10261000FF3544D14000FF3514CF4000508D85EC8C
:10262000FEFFFF56506A01E829F1FFFF6A008D8521
:10263000ECFDFFFFFF3514CF400056508D85ECFEBA
:10264000FFFF565056FF3544D14000E8B6EEFFFF7D
:102650006A008D85ECFCFFFFFF3514CF400056501B
:102660008D85ECFEFFFF56506800020000FF3544E8
:10267000D14000E88EEEFFFF83C45C33C08D8DEC4B
:10268000FAFFFF668B11F6C2017416808841D040B4
:1026900000108A9405ECFDFFFF889040CF4000EBCE
:1026A0001CF6C2027410808841D04000208A940534
:1026B000ECFCFFFFEBE380A040CF40000040414135
:1026C0003BC672BFEB4933C0BE0001000083F84136
:1026D000721983F85A7714808841D04000108AC854
:1026E00080C120888840CF4000EB1F83F8617213BF
:1026F00083F87A770E808841D04000208AC880E92C
:1027000020EBE080A040CF400000403BC672BE5EA0
:10271000C9C3833D88E240000075126AFDE82CFCC5
:10272000FFFF59C70588E2400001000000C3CCCC80
:10273000CC578B7C2408EB6A8DA424000000008B0E
:10274000FF8B4C240457F7C103000000740F8A016B
:102750004184C0743BF7C10300000075F18B01BADE
:10276000FFFEFE7E03D083F0FF33C283C104A900C5
:1027700001018174E88B41FC84C0742384E4741AE1
:10278000A90000FF00740EA9000000FF7402EBCD49
:102790008D79FFEB0D8D79FEEB088D79FDEB038DC7
:1027A00079FC8B4C240CF7C10300000074198A11CA
:1027B0004184D27464881747F7C10300000075EEA6
:1027C000EB05891783C704BAFFFEFE7E8B0103D099
:1027D00083008D4DEF8A1184D20F84AE0000000F6C
:1027E000B641FF0FB6D23BC20F879300000080882E
:1027F00041D040000440EBEE6A4033C059BF40D0A6
:102800004000F3AB8D3452895DFCC1E604AA8D9E75
:10281000C8CB4000803B008BCB742C8A510184D202
:1028200074250FB6010FB6FA3BC777148B55FC8A97
:1028300092B0CB4000089041D04000403BC776F5B5
:10284000414180390075D4FF45FC83C308837DFC7A
:102850000472C18B4508C7052CCF40000100000061
:1028600050A314CF4000E8C60000008DB6BCCB409A
:1028700000BF20CF4000A5A559A344D14000A5EB3F
:102880005541418079FF000F8548FFFFFF6A0158DD
:10289000808841D0400008403DFF00000072F156A2
:1028A000E88C00000059A344D14000C7052CCF405C
:1028B0000001000000EB06891D2CCF400033C0BF93
:1028C00020CF4000ABABABEB0D391DECCE4000741C
:1028D0000EE88E000000E8B200000033C0EB038376
:1028E000C8FF5F5E5BC9C38B4424048325ECCE40E4
:1028F000000083F8FE7510C705ECCE400001000013
:1029000000FF2590A0400083F8FD7510C705ECCEB0
:10291000400001000000FF2594A0400083F8FC75F2
:102920000FA1D8CE4000C705ECCE4000010000004A
:10293000C38B4424042DA4030000742283E8047490
:102940001783E80D740C48740333C0C3B804040043
:1029500000C3B812040000C3B804080000C3B811D3
:10296000040000C3576A405933C0BF40D04000F351
:10297000ABAA33C0BF20CF4000A314CF4000A32C8C
:10298000CF4000A344D14000ABABAB5FC3558BEC51
:1029900081EC140500008D45EC5650FF3514CF40F6
:1029A00000FF1598A0400083F8010F851601000074
:1029B00033C0BE00010000888405ECFEFFFF403BF1
:1029C000C672F48A45F2C685ECFEFFFF2084C0740F
:1029D00037A1E8CE400085C0741450E86A000000BA
:1029E00085C059740956FF15E8CE4000EB0233C08C
:1029F0005EC2040068DD8B4000FF15A4A04000A368
:102A0000E8CE4000C3FF35E8CE4000FF15A4A0404B
:102A100000C3566A015EFF74240CFF74240CFF157A
:102A2000A0A0400085C0740233F68BC65EC3566A10
:102A3000015EFF74240CFF74240CFF1500A14000FC
:102A400085C0740233F68BC65EC3566A015EFF749E
:102A50002408FF159CA0400085C0740233F68BC685
:102A60005EC3CCCCCCCCCCCCCCCCCCCCCCCCCCCC1D
:102A7000CC8B5424048B4C2408F7C203000000754F
:102A80003C8B023A01752E0AC074263A6101752505
:102A90000AE4741DC1E8103A410275190AC07411A4
:102AA0003A6103751083C10483C2040AE475D28BB2
:102AB000FF33C0C3901BC0D1E040C38BFFF7C201FE
:102AC00000000074148A02423A0175E9410AC07498
:102AD000E0F7C20200000074A8668B0283C2023ACB
:102AE0000175D20AC074CA3A610175C90AE474C199
:102AF00083C102EB8C6A0AE87AEDFFFF6A16E8F6FA
:102B000006000059596A03E816B6FFFF6A046A0016
:102B1000FF74240CE80400000083C40CC30FB64407
:102B200024048A4C240C848841D04000751C837C8A
:102B3000240800740E0FB704452AC440002344241F
:102B400008EB0233C085C07501C36A0158C3558BB9
:102B5000EC83EC18535657FF7508E8880100008B8A
:102B6000F0593B3514CF40008975080F846A010085
:102B70000033DB3BF30F845601000033D2B8B8CBEF
:102B800040003930747283C030423DA8CC40007C94
:102B9000F18D45E85056FF1598A0400083F8010FCD
:102BA00085240100006A4033C059BF40D0400083F3
:102BB0007DE801893514CF4000F3ABAA891D44D1CB
:102BC00040000F86EF000000807DEE000F84BB0008
:102BD00000007511F6450C08740B8B07804C30040F
:102BE000208D4430048BC35F5E5BC9C3558BEC53AF
:102BF000568B750C33DB3BF37415395D1074108AFA
:102C0000063AC375108B45083BC3740366891833B5
:102C1000C05E5B5DC3391DC8CE400075138B4D0887
:102C20003BCB7407660FB6C06689016A0158EBE1B9
:102C30008B0D20C440000FB6C0F644410180744D96
:102C4000A12CC6400083F8017E2A3945107C2F3321
:102C5000C9395D080F95C151FF750850566A09FFC3
:102C600035D8CE4000FF15C0A0400085C0A12CC6BD
:102C70004000759D3945107205385E017593C70592
:102C80003CCD40002A00000083C8FFEB8433C039EC
:102C90005D080F95C050FF75086A01566A09FF3537
:102CA000D8CE4000FF15C0A0400085C00F8579FF39
:102CB000FFFFEBCA833D2CC64000017E0E6A08FF71
:102CC000742408E8EAB9FFFF5959C38B4424048BE4
:102CD0000D20C440008A044183E008C3CCCCCCCC96
:102CE000CC8B4424088B4C24100BC88B4C240C75C3
:102CF000098B442404F7E1C2100053F7E18BD88B11
:102D0000442408F764241403D88B442408F7E1030F
:102D1000D35BC21000CCCCCCCCCCCCCCCCCCCCCCEF
:102D2000CC80F940731580F92073060FA5C2D3E05B
:102D3000C38BD033C080E11FD3E2C333C033D2C3CF
:102D4000538B5C240883FBFF5674418B7424108BD7
:102D5000460CA8017508A8807432A802752E837EDF
:102D60000800750756E804F9FFFF598B063B460833
:102D70007509837E04007514408906F6460C40747C
:102D800011FF0E8B063818740F40890683C8FF5E4A
:102D90005BC3FF0E8B0688188B460CFF460424EF9E
:102DA0000C0189460C8BC325FF000000EBE1568B1C
:102DB0007424088B06813863736DE0751483781072
:102DC00003750E817814200593197505E9CCE6FF8B
:102DD000FF4075BB8975F0EB15C745F00200000098
:102DE000EB0CC745F001000000EB03895DF0BA0071
:102DF000070000B80004000023CABF000100003B28
:102E0000C87F35742E3BCB742A3BCF741D81F900EB
:102E1000020000743C81F9000300000F856EFFFF83
:102E2000FFC745F802000000EB37C745F804000073
:102E300000EB2E8975F8EB2981F900050000741A62
:102E400081F90006000074093BCA740EE93EFFFFD9
:102E5000FFC745F805000000EB07C745F801000073
:102E6000008B450CBE8000000085C774138B0D4499
:102E7000CD4000F7D1234D14F6C18075036A015E81
:102E8000A840740A81CE00000004804DF601F6C40B
:102E90001074020BF7A820740881CE00000008EB24
:102EA0000AA810740681CE00000010E869FCFFFF3C
:102EB0008BD883CFFF3BDF7513832540CD400000C7
:102EC000C7053CCD400018000000EB3E6A0056FFED
:102ED00075F88D45E450FF75F0FF75F4FF7508FF38
:102EE0001570A040008BF03BF7741256FF1510A12F
:102EF000400085C0751B56FF1578A04000FF157473
:102F0000A0400050E8A9FBFFFF598BC7E9D600009D
:102F10000083F8027506804DFF40EB0983F80375C6
:102F200004804DFF085653E882FCFFFF598A45FF95
:102F3000598BF38BCB0C01C1F90583E61F88450B38
:102F40008D3C8D60D14000C1E6038B0F80650B483E
:102F5000884431047578A8807474F6450C02746E48
:102F60006A026AFF53E887D1FFFF83C40C83F8FF2E
:102F70008945F0750E813D40CD400083000000740E
:102F80004DEB3F806513008D45136A015053E88770
:102F9000CAFFFF83C40C85C07516807D131A751097
:102FA000FF75F053E80A0900005983F8FF597412BD
:102FB0006A006A0053E837D1FFFF83C40C83F8FF2F
:102FC000750C53E88EC7FFFF5983C8FFEB19807D4E
:102FD0000B0F833C31FF7536833D14C44000015311
:102FE0008B5C2414751E83E80074104874084875BF
:102FF00013536AF4EB08536AF5EB03536AF6FF15B3
:10300000ACA040008B07891C3033C05BEB148325D8
:1030100040CD400000C7053CCD40000900000083C2
:10302000C8FF5F5EC38B4C2404563B0D60D240004A
:103030005773558BC18BF1C1F80583E61F8D3C8515
:1030400060D14000C1E6038B0703C6F6400401745B
:10305000378338FF7432833D14C4400001751F3339
:10306000C02BC87410497408497513506AF4EB08F2
:10307000506AF5EB03506AF6FF15ACA040008B07D1
:10308000830C30FF33C0EB14832540CD400000C7D4
:10309000053CCD40000900000083C8FF5F5EC38B84
:1030A0004424043B0560D24000731C8BC883E01F9E
:1030B000C1F9058B0C8D60D14000F644C104018D2F
:1030C00004C174038B00C3832540CD400000C705B5
:1030D0003CCD40000900000083C8FFC38B4424049A
:1030E0003B0560D24000733D8BC88BD0C1F905838E
:1030F000E21F8B0C8D60D14000F644D10401742591
:1031000050E899FFFFFF5950FF15A8A0400085C067
:103110007508FF1574A04000EB0233C085C074121F
:10312000A340CD4000C7053CCD400009000000830E
:10313000C8FFC3558BEC83EC1C8B4D0C5333DB5613
:10314000F6C18057C745E40C000000895DE87409AA
:10315000895DECC645FF10EB0B8065FF00C745ECB1
:1031600001000000B80080000085C87511F6C54058
:1031700075083905FCCE40007404804DFF806A0359
:103180008BC15E23C62BC3742D487421487415C7A8
:10319000053CCD400016000000891D40CD4000E9EF
:1031A00025020000C745F4000000C0EB10C745F43D
:1031B00000000040EB07C745F4000000808B45107D
:1031C00083F810742683F820741883F830740A8307
:1031D000F8E9D1DBD1EAD1D80BC975F4F7F38BC884
:1031E000F764241491F764241003D1720E3B542425
:1031F0000C7708720E3B44240876082B4424101BDD
:103200005424142B4424081B54240CF7DAF7D883D5
:10321000DA005BC2100056576A0333FF5E3935800F
:10322000E240007E44A164D240008B04B085C074AB
:103230002FF6400C83740D50E8DAABFFFF83F8FFE4
:103240005974014783FE147C17A164D24000FF34F7
:10325000B0E81BA6FFFFA164D24000598324B00050
:10326000463B3580E240007CBC8BC75F5EC3FF05F8
:1032700098CD40006800100000E86EAAFFFF598B4F
:103280004C240485C0894108740D83490C08C7414A
:103290001800100000EB1183490C048D4114894182
:1032A00008C74118020000008B41088361040089AF
:1032B00001C38B4C240433D2890D40CD4000B8406B
:1032C000CA40003B08742083C008423DA8CB4000A0
:1032D0007CF183F913721D83F9247718C7053CCD5F
:1032E00040000D000000C38B04D544CA4000A33C3D
:1032F000CD4000C381F9BC000000721281F9CA0000
:103300000000C7053CCD400008000000760AC70554
:103310003CCD400016000000C353565783CBFF330B
:10332000FF33F6B960D140008B0185C074378D90B2
:10333000000100003BC2731CF6400401740583C009
:1033400008EBF18308FF2B01C1F80303C68BD88378
:10335000FBFF755483C1044783C62081F960D240C6
:10336000007CC5EB43BE0001000056E87CA9FFFFCE
:1033700085C0597433830560D24000208D0CBD6038
:10338000D140008D900001000089013BC273148080
:103390006004008308FFC640050A8B1183C0080340
:1033A000D6EBE8C1E7058BDF5F8BC35E5BC38B4465
:1033B0002404563B0560D240005773528BC88BF0F3
:1033C000C1F90583E61F8D3C8D60D14000C1E60345
:1033D0008BC8CE4000FF7514FF7510FF750CFF758C
:1033E0000850FF15B4A04000E99F00000083F801D9
:1033F0000F8594000000395D187508A1D8CE4000F3
:103400008945185353FF7510FF750C8B4520F7D86D
:103410001BC083E0084050FF7518FF15C0A0400096
:103420008945E03BC37463895DFC8D3C008BC78399
:10343000C00324FCE8B8B6FFFF8965E88BF4897502
:10344000DC575356E8F8C3FFFF83C40CEB0B6A014B
:1034500058C38B65E833DB33F6834DFCFF3BF374D5
:1034600029FF75E056FF7510FF750C6A01FF75188E
:10347000FF15C0A040003BC37410FF75145056FFE9
:103480007508FF15B0A04000EB0233C08D65CC8BF2
:103490004DF064890D000000005F5E5BC9C38B4482
:1034A00024043B0560D24000720333C0C38BC88341
:1034B000E01FC1F9058B0C8D60D140008A44C10426
:1034C00083E040C3558BEC8B450885C075025DC316
:1034D000833DC8CE4000007512668B4D0C6681F9A5
:1034E000FF0077396A018808585DC38D4D088365F0
:1034F0000800516A00FF352CC64000508D450C6A0B
:1035000001506820020000FF35D8CE4000FF15288A
:10351000A1400085C07406837D0800740DC7053C7A
:10352000CD40002A00000083C8FF5DC3CCCCCCCCCA
:10353000CC53568B4424180BC075188B4C24148B19
:1035400044241033D2F7F18BD88B44240CF7F18B41
:10355000D3EB418BC88B5C24148B5424108B4424F4
:103560000CD1E9D1DBD1EAD1D80BC975F4F7F38BD3
:10357000F0F76424188BC88B442414F7E603D17247
:103580000E3B542410770872073B44240C76014EFE
:1035900033D28BC65E5BC21000CCCCCCCCCCCCCCB6
:1035A000CC538B4424140BC075188B4C24108B44C3
:1035B000240C33D2F7F18B442408F7F18BC233D2B9
:1035C000EB508BC88B5C24108B54240C8B44240848
:1035D000D17514FF75108B4524F7D81BC083E00804
:1035E0004050FF7520FF15C0A040008BD8895DE4D6
:1035F0003BDF0F849C000000897DFC8D041B83C091
:103600000324FCE8E9B8FFFF8965E88BC48945DC41
:10361000834DFCFFEB136A0158C38B65E833FF89C8
:103620007DDC834DFCFF8B5DE4397DDC746653FFEC
:1036300075DCFF7514FF75106A01FF7520FF15C05A
:10364000A0400085C0744D575753FF75DCFF750CC3
:10365000FF7508FF15B8A040008BF08975D83BF7BF
:103660007432F6450D047440397D1C0F84B200009D
:10367000003B751C7F1EFF751CFF751853FF75DC22
:10368000FF750CFF7508FF15B8A0400085C00F85B9
:103690008F00000033C08D65C88B4DF064890D002C
:1036A0000000005F5E5BC9C3C745FC010000008DE0
:1036B000043683C00324FCE835B8FFFF8965E88B36
:1036C000DC895DE0834DFCFFEB126A0158C38B651A
:1036D000E833FF33DB834DFCFF8B75D83BDF74B4DD
:1036E0005653FF75E4FF75DCFF750CFF7508FF1579
:1036F000B8A0400085C0749C397D1C57577504578D
:1037000057EB06FF751CFF75185653682002000022
:10371000FF7520FF1528A140008BF03BF70F847147
:10372000FFFFFF8BC6E96CFFFFFF8B5424088B441F
:10373000240485D2568D4AFF740D803800740840E9
:103740008BF14985F675F38038005E75052B4424AE
:1037500004C38BC2C3558BEC6AFF6890A540006818
:103760009479400064A100000000506489250000A5
:10377000000083EC185356578965E8A1E0CE40005D
:1037800033DB3BC3753E8D45E4506A015E56687479
:10379000A5400056FF15B0A0400085C074048BC63C
:1037A000EB1D8D45E450566870A540005653FF153B
:1037B000B4A0400085C00F84CE0000006A0258A368
:1037C000E0CE400083F80275248B451C3BC3750591
:1037D000A14EC1E9024F83F90872B6FDF3A5FCFFC3
:1037E0002495E07E40008D49008A460323D1884716
:1037F000038A4602C1E90288470283EE0283EF0290
:1038000083F908728CFDF3A5FCFF2495E07E40004F
:10381000908A460323D18847038A46028847028A52
:103820004601C1E90288470183EE0383EF0383F970
:10383000080F825AFFFFFFFDF3A5FCFF2495E07EF1
:1038400040008D4900947E40009C7E4000A47E4054
:1038500000AC7E4000B47E4000BC7E4000C47E4090
:1038600000D77E40008B448E1C89448F1C8B448E75
:103870001889448F188B448E1489448F148B448E7E
:103880001089448F108B448E0C89448F0C8B448E8E
:103890000889448F088B448E0489448F048D048DDD
:1038A0000000000003F003F8FF2495E07E40008B49
:1038B000FFF07E4000F87E4000087F40001C7F4003
:1038C000008B45085E5FC9C3908A46038847038B17
:1038D00045085E5FC9C38D49008A46038847038A4D
:1038E00046028847028B45085E5FC9C3908A46033B
:1038F0008847038A46028847028A46018847018B27
:1039000045085E5FC9C3558BEC6AFF6878A5400027
:10391000689479400064A10000000050648925008B
:1039200000000083EC1C5356578965E833FF393D8E
:10393000BCCE4000754657576A015B536874A5407A
:1039400000BE000100005657FF15B8A0400085C01A
:103950007408891DBCCE4000EB225757536870A5F0
:1039600040005657FF15BCA0400085C00F842201BF
:103970000000C705BCCE400002000000397D147E67
:1039800010FF7514FF7510E89E0100005959894514
:1039900014A1BCCE400083F802751DFF751CFF7595
:1039A00018FF7514FF7510FF750CFF7508FF15BC27
:1039B000A04000E9DE00000083F8010F85D300007D
:1039C00000397D207508A1D8CE4000894520575781
:1039D000FF558BEC57568B750C8B4D108B7D088BE0
:1039E000C18BD103C63BFE76083BF80F82780100FD
:1039F00000F7C7030000007514C1E90283E20383E6
:103A0000F9087229F3A5FF2495487D40008BC7BAB9
:103A10000300000083E904720C83E00303C8FF2461
:103A200085607C4000FF248D587D400090FF248DF0
:103A3000DC7C400090707C40009C7C4000C07C405E
:103A40000023D18A0688078A46018847018A4602F0
:103A5000C1E90288470283C60383C70383F908725A
:103A6000CCF3A5FF2495487D40008D490023D18AE1
:103A70000688078A4601C1E90288470183C6028396
:103A8000C70283F90872A6F3A5FF2495487D40007C
:103A90009023D18A06880746C1E9024783F9087254
:103AA0008CF3A5FF2495487D40008D49003F7D4063
:103AB000002C7D4000247D40001C7D4000147D4092
:103AC000000C7D4000047D4000FC7C40008B448E57
:103AD000E489448FE48B448EE889448FE88B448EDC
:103AE000EC89448FEC8B448EF089448FF08B448EAC
:103AF000F489448FF48B448EF889448FF88B448E7C
:103B0000FC89448FFC8D048D0000000003F003F855
:103B1000FF2495487D40008BFF587D4000607D402C
:103B2000006C7D4000807D40008B45085E5FC9C30E
:103B3000908A0688078B45085E5FC9C3908A06880D
:103B4000078A46018847018B45085E5FC9C38D49D6
:103B5000008A0688078A46018847018A4602884704
:103B6000028B45085E5FC9C3908D7431FC8D7C3932
:103B7000FCF7C7030000007524C1E90283E2038358
:103B8000F908720DFDF3A5FCFF2495E07E40008B43
:103B9000FFF7D9FF248D907E40008D49008BC7BA76
:103BA0000300000083F904720C83E0032BC8FF2498
:103BB00085E87D4000FF248DE07E400090F87D4048
:103BC00000187E4000407E40008A460323D188478B
:103BD0000383C4088D0C766A018B448F08E8D5BE38
:103BE000FFFF8B048F89430CFF548F088B7B088D5C
:103BF0000C768B348FEBA1B800000000EB1CB801F1
:103C0000000000EB15558D6B106AFF53E812BEFFE4
:103C1000FF83C4085DB8010000005D5F5E5B8BE55B
:103C20005DC3558B4C24088B298B411C508B41184C
:103C300050E8EDBDFFFF83C4085DC20400A138CD8C
:103C4000400083F801740D85C0752A833D14C4407B
:103C50000001752168FC000000E818000000A1B810
:103C6000CE40005985C07402FFD068FF000000E814
:103C70000200000059C3558BEC81ECA40100008BBD
:103C8000550833C9B890C940003B10740B83C00875
:103C9000413D20CA40007CF1568BF1C1E6033B96C2
:103CA00090C940000F851C010000A138CD40008361
:103CB000F8010F84E800000085C0750D833D14C431
:103CC0004000010F84D700000081FAFC0000000FC3
:103CD00084F10000008D855CFEFFFF680401000098
:103CE000506A00FF151CA1400085C075138D855CCE
:103CF000FEFFFF6858A5400050E8331600005959F0
:103D00008D855CFEFFFF57508DBD5CFEFFFFE8BE5A
:103D1000EEFFFF405983F83C76298D855CFEFFFF5E
:103D200050E8ABEEFFFF8BF88D855CFEFFFF83E86C
:103D30003B6A0303F86854A5400057E831B2FFFF1F
:103D400083C4108D8560FFFFFF6838A5400050E8F0
:103D5000DD1500008D8560FFFFFF5750E8E015007E
:103D6000008D8560FFFFFF6834A5400050E8CF1547
:103D70000000FFB694C940008D8560FFFFFF50E84A
:103D8000BD15000068102001008D8560FFFFFF68F1
:103D90000CA5400050E88716000083C42C5FEB267A
:103DA0008D45088DB694C940006A0050FF36E81E64
:103DB000EEFFFF5950FF366AF4FF1548A04000504F
:103DC000FF1528A040005EC9C3CCCCCCCCCCCCCC59
:103DD000CC837D0800742E85F674190FB6DAF6834D
:103DE00041D0400004740688164640FF018A1088BE
:103DF0001646EB0F0FB6D2F68241D0400004740392
:103E000040FF01FF0140E958FFFFFF85F674048081
:103E1000260046FF01E917FFFFFF85FF7403832794
:103E2000008B45145F5E5BFF005DC35151A1B4CEB2
:103E3000400053558B2DC4A04000565733DB33F65A
:103E400033FF3BC37533FFD58BF03BF3740CC705D1
:103E5000B4CE400001000000EB28FF15C8A04000D0
:103E60008BF83BFB0F84EA000000C705B4CE40008E
:103E700002000000E98F00000083F8010F85810037
:103E800000003BF3750CFFD58BF03BF30F84C200B1
:103E9000000066391E8BC6740E404066391875F9ED
:103EA000404066391875F22BC68B3D28A14000D1E1
:103EB000F853534053535056535389442434FFD737
:103EC0008BE83BEB743255E820B6FFFF3BC35989C2
:103ED000442410742353535550FF742424565353D1
:103EE000FFD785C0750EFF742410E882B1FFFF591B
:103EF000895C24108B5C241056FF1524A140008B94
:103F0000C3EB5383F802754C3BFB750CFF15C8A03F
:103F100040008BF83BFB743C381F8BC7740A403859
:103F20001875FB40381875F62BC7408BE855E8B973
:103F3000B5FFFF8BF0593BF3750433F6EB0B555788
:103F400056E8CBDCFFFF83C40C57FF1520A14000CF
:103F50008BC6EB0233C05F5E5D5B5959C35643327B
:103F60003058433030558BEC83EC0853565755FC92
:103F70008B5D0C8B4508F74004060000000F85821E
:103F80000000008945F88B45108945FC8D45F8896E
:103F900043FC8B730C8B7B0883FEFF74618D0C7666
:103FA000837C8F0400744556558D6B10FF548F042D
:103FB0005D5E8B5D0C0BC07433783C8B7B0853E8E3
:103FC0001DBEFFFF83C4048D6B105653E852BEFF25
:103FD000FF5EC70584E24000010000005BC3558B13
:103FE000EC51515333DB391D88E2400056577505BB
:103FF000E81D1B0000BEB0CD400068040100005663
:1040000053FF151CA14000A1B4E24000893574CDD6
:1040100040008BFE381874028BF88D45F8508D45A2
:10402000FC50535357E84D0000008B45F88B4DFC76
:104030008D048850E8B3B8FFFF8BF083C4183BF3BE
:1040400075086A08E8CDC3FFFF598D45F8508D45C6
:10405000FC508B45FC8D0486505657E81700000035
:104060008B45FC83C4144889355CCD40005F5EA35A
:1040700058CD40005BC9C3558BEC8B4D188B451454
:1040800053568321008B7510578B7D0CC7000100A0
:1040900000008B450885FF7408893783C704897D34
:1040A0000C80382275448A50014080FA2274298499
:1040B000D274250FB6D2F68241D0400004740CFFB2
:1040C0000185F674068A1088164640FF0185F6744D
:1040D000D58A10881646EBCEFF0185F6740480263B
:1040E0000046803822754640EB43FF0185F6740593
:1040F0008A108816468A10400FB6DAF68341D040FF
:104100000004740CFF0185F674058A18881E464069
:1041100080FA20740984D2740980FA0975CC84D29B
:10412000750348EB0885F674048066FF0083651804
:10413000008038000F84E00000008A1080FA2074AC
:104140000580FA09750340EBF18038000F84C80040
:10415000000085FF7408893783C704897D0C8B555F
:1041600014FF02C745080100000033DB80385C758E
:10417000044043EBF7803822752CF6C301752533D4
:10418000FF397D18740D807801228D500175048BE4
:10419000C2EB03897D088B7D0C33D23955180F94FF
:1041A000C2895518D1EB8BD34B85D2740E4385F65B
:1041B0007404C6065C46FF014B75F38A1084D27402
:1041C0004A837D1800750A80FA20743F80FA0974CA
:1041D0003A3D8E0000C0750CC7058CC940008300B5
:1041E0000000EB703D900000C0750CC7058CC94005
:1041F0000081000000EB5D3D910000C0750CC7051B
:104200008CC9400084000000EB4A3D930000C0755B
:104210000CC7058CC9400085000000EB373D8D00C0
:1042200000C0750CC7058CC9400082000000EB245B
:104230003D8F0000C0750CC7058CC940008600008A
:1042400000EB113D920000C0750AC7058CC9400003
:104250008A000000FF358CC940006A08FFD35989E5
:10426000358CC94000595EEB088360080051FFD3CC
:10427000598B4508A3ACCD400083C8FFEB09FF75FF
:104280000CFF1518A140005B5DC38B5424048B0DFB
:1042900088C94000391508C9400056B808C940000F
:1042A00074158D34498D34B508C9400083C00C3B6A
:1042B000C67304391075F58D0C495E8D0C8D08C9D7
:1042C00040003BC173043910740233C0C3833D887E
:1042D000E24000007505E8371C0000568B35B4E25B
:1042E00040008A063C2275258A4601463C22741508
:1042F00084C074110FB6C050E80F18000085C05973
:1043000074E646EBE3803E22750D46EB0A3C2076D0
:104310000646803E2077FA8A0684C074043C2076E4
:10432000E98BC65EC35333DB391D88E24000565724
:104330007505E8DB1B00008B3530CD400033FF8A6C
:10434000063AC374123C3D74014756E881F4FFFFFE
:10435000598D740601EBE88D04BD0400000050E89F
:1043600088B9FFFF8BF0593BF3893564CD40007568
:10437000086A09E89EC4FFFF598B3D30CD400038E4
:104380001F74395557E847F4FFFF8BE85945803FC4
:104390003D742255E853B9FFFF3BC35989067508A0
:1043A0006A09E86FC4FFFF5957FF36E8811B000018
:1043B0005983C6045903FD381F75C95DFF3530CDDB
:1043C0004000E8AAB4FFFF59891D30CD4000891E86
:1043D0005F5064892500000000515153565789658C
:1043E000E88B450885C0741B8B481C8B490485C924
:1043F00074118365FC0051FF7018E831C3FFFF831F
:104400004DFCFF8B4DF064890D000000005F5E5B8A
:10441000C9C333C038450C0F95C0C38B65E8E97A32
:104420000000008B4C2408568B7424088B018B51A0
:104430000403C685D27C0D8B34328B49088B0C0E5D
:1044400003CA03C15EC3CCCCCCCCCCCCCCCCCCCCC2
:10445000CC558BEC83EC0453518B450C83C00C89F9
:1044600045FC8B450855FF75108B4D108B6DFCE896
:104470003AC6FFFF5657FFD05F5E8BDD5D8B4D1058
:10448000558BEB81F9000100007505B902000000B1
:1044900051E818C6FFFF5D595BC9C20C00558BEC93
:1044A0006AFF6850A24000689479400064A100004F
:1044B000000050648925000000005151535657896F
:1044C00065E88365FC00A1A8CD400085C07416C7CF
:1044D00045FC01000000FFD0EB076A0158C38B6563
:1044E000E88365FC00834DFCFFE800000000E90262
:1044F0001A0000558BEC6AFF6868A2400068947946
:10450000400064A100000000506489250000000004
:1045100051515356578965E88365FC00A104C94091
:104520000085C07416C745FC01000000FFD0EB07F2
:104530006A0158C38B65E88365FC00834DFCFFE886
:1045400000000000E954FFFFFF558BEC53FF750896
:10455000E83501000085C0590F84200100008B5808
:104560000885DB0F841501000083FB05750C836053
:1045700008006A0158E90D01000083FB010F84F671
:104580000000008B0DACCD4000894D088B4D0C898F
:104590000DACCD40008B480483F9080F85C800009E
:1045A000008B0D80C940008B1584C9400003D15693
:1045B0003BCA7D158D34492BD18D34B510C94000CF
:1045C00083260083C60C4A75F78B008B358CC94057
:1045D00000048B00813863736DE0751983781003D4
:1045E000751381781420059319750A83781C00755A
:1045F000046A0158C333C0C3558BEC6AFF6830A20C
:104600004000689479400064A10000000050648973
:10461000250000000083EC0C5356578965E88B4D4C
:10462000108B410485C00F8475010000807808005C
:104630000F846B0100008B410885C00F846001006E
:10464000008B550C8D7C100C8365FC00F601087402
:10465000448B75086A01FF7618E8B41B00005959AD
:1046600085C00F84300100006A0157E8BE1B0000BE
:10467000595985C00F841E0100008B461889078B8D
:104680004D1483C1085150E897010000595989071A
:10469000E9080100008B7514F6060174528B5D0861
:1046A0006A01FF7318E8681B0000595985C00F8420
:1046B000E40000006A0157E8721B0000595985C0E8
:1046C0000F84D2000000FF7614FF731857E8FF0A2A
:1046D000000083C40C837E14040F85BE0000008B91
:1046E0000785C00F84B400000083C60856EB97838B
:1046F0007E18008B5D086A01FF7318753AE8101B7D
:104700000000595985C00F848C0000006A0157E8E9
:104710001A1B0000595985C0747EFF761483C608A1
:1047200056FF7318E8FA00000059595057E89F0ADD
:10473000000083C40CEB66E8D61A0000595985C006
:1047400074566A0157E8E41A0000595985C0744844
:10475000FF7618E8F21A00005985C0743BF606048B
:10476000741C6A018D460850FF7318E8B3000000FE
:10477000595950FF761857E8BBC3FFFFEB1F8D4612
:104780000850FF7318E899000000595950FF761837
:1047900057E89AC3FFFFEB05E856010000834DFC84
:1047A000FF8B4DF064890D000000005F5E5BC9C3A4
:1047B0006A0158C38B65E8E9E1000000558BEC6A9B
:1047C000FF6840A24000689479400064A1000000A6
:1047D00000047C05E81A0500008365FC008B47088F
:1047E0008B44F00485C0740C68030100005350E84A
:1047F0005D040000834DFCFFEB1AFF75ECE82F0011
:10480000000059C38B65E8834DFCFF8B7D108B5DE9
:10481000088B75E48B47088B34F08975E4EBA68927
:1048200073088B4DF064890D000000005F5E5BC96A
:10483000C38B4424048B00813863736DE0740333AD
:10484000C0C3E956040000558BEC837D2000538BD8
:104850005D1C56578B7D0C7410FF75205357FF75E8
:1048600008E89201000083C410837D2C00FF7508C6
:10487000750357EB03FF752CE8C1C6FFFF8B75244A
:10488000FF36FF7518FF751457E805FFFFFF8B46CD
:10489000046800010000FF752840894708FF730C79
:1048A000FF7518FF751057FF7508E81300000083A7
:1048B000C42C85C074075750E83FC6FFFF5F5E5B9E
:1048C0005DC3558BEC6AFF6818A24000689479407C
:1048D0000064A100000000506489250000000083EE
:1048E000EC1C5356578965E88B45188945D433DB52
:1048F000895DDC8B750C8B4EFC894DD88B0D9CCD66
:104900004000894DE48B0DA0CD4000894DE08B7DAA
:1049100008893D9CCD40008B4D10890DA0CD4000F5
:10492000895DFCC745FC01000000FF7520FF751C78
:1049300050FF751456E889C6FFFF83C4148945D417
:10494000895DFC834DFCFFE83C0000008B45D48B67
:104950004DF064890D000000005F5E5BC9C3FF7508
:10496000ECE86800000059C38B65E88365D4006AF1
:10497000FF8D45F050E8A9C8FFFF595933C0EBCF70
:1049800033DB8B750C8B7D088B45D88946FC8B45BA
:10499000E4A39CCD40008B45E0A3A0CD4000813F27
:1049A00063736DE07527837F10037521817F142069
:1049B0000593197518395DDC7513395DD4740EE8EB
:1049C000C7C8FFFF5057E8F10100005959C38B4495
:1049D00024088B430C85C08945F47E648B461C8B70
:1049E000400C8D78048B0085C08945F87E1FFF76CA
:1049F0001CFF37FF7508E83B01000083C40C85C02D
:104A0000751AFF4DF883C7043945F87FE1FF4DF46F
:104A100083450810837DF4007FC2EB24FF75ECFF13
:104A20007524FF752053FF37FF7508FF7518FF7554
:104A300014FF7510FF750C56E80A02000083C42CA1
:104A40008B7DF0FF45FC83C314E969FFFFFF807D88
:104A50001C00740A6A0156E86005000059595F5E3F
:104A60005BC9C3807D1C007520FF7524FF7520FF86
:104A700075F0FF7518FF7514FF7510FF750C56E87B
:104A80000A00000083C420EBD5E90F060000558B17
:104A9000EC5151833DA4CD40000056577421FF7561
:104AA00024FF7520FF7518FF7514FF7510FF750C36
:104AB000FF7508E884C9FFFF83C41C85C075738B2C
:104AC0007D1C8D45F8508D45FC5057FF7520FF75B6
:104AD00018E88FCAFFFF83C4148BF08B45FC3B455D
:104AE000F8734F3B3E7C433B7E047F3E8B460C8BF2
:104AF0004E10C1E00403C18B48F485C97406807967
:104B0000080075266A0183C0F0FF7524FF752056E2
:104B10006A0050FF7518FF7514FF7510FF750CFFC4
:104B20007508E82001000083C42CFF45FC83C614EF
:104B3000EBA95F5EC9C356578B7C240C8B47048559
:104B4000C0744A807808008D500874418B7424101A
:104B50008B4E043BC1741083C1085152E8101F00F2
:104B6000005985C0597522F606027405F6070874C7
:104B7000188B4424148B00A8017405F607017409EE
:104B8000A8027409F60702750433C0EB036A0158E2
:104B90005F5EC3558BEC6AFF6808A2400068947999
:104BA000400064A10000000050648925000000005E
:104BB00083EC0C5356578965E88B5D088B73088925
:104BC00075E48B7D103B7514745583FEFF7E053BA9
:104BD000778B4C2404F7C10300000074148A014150
:104BE00084C07440F7C10300000075F105000000A7
:104BF000008B01BAFFFEFE7E03D083F0FF33C28339
:104C0000C104A90001018174E88B41FC84C07432A5
:104C100084E47424A90000FF007413A9000000FFBD
:104C20007402EBCD8D41FF8B4C24042BC1C38D410D
:104C3000FE8B4C24042BC1C38D41FD8B4C24042BD3
:104C4000C1C38D41FC8B4C24042BC1C3558BEC5646
:104C50008B751857BF20059319393E7405E89108E4
:104C600000008B4508F6400466741F837E040074C0
:104C70006F837D1C0075696AFF56FF7514FF750C04
:104C8000E80E03000083C410EB56837E0C007450C2
:104C9000813863736DE0752C39781476278B481C46
:104CA0008B490885C9741D0FB6552452FF7520FF26
:104CB000751C56FF7514FF7510FF750C50FFD183DE
:104CC000C420EB1FFF7520FF751CFF752456FF7570
:104CD00014FF7510FF750C50E80A00000083C42013
:104CE0006A01585F5E5DC3558BEC83EC188B450CF5
:104CF0008065EC008B400883F8FF8945F07C088BC9
:104D00004D183B41047C05E8E707000053568B75BE
:104D100008BB63736DE057BF20059319391E0F85DB
:104D20003F010000837E10037556397E1475518350
:104D30007E1C00754B8B359CCD400085F60F841B87
:104D4000010000A1A0CD40006A0156894510C6456A
:104D5000EC01E8BB2000005985C0597505E89107B2
:104D60000000391E0F85F9000000837E10037510C6
:104D7000397E14750B837E1C007505E873070000EF
:104D8000391E0F85DB000000837E10030F85D100E4
:104D90000000397E140F85C80000008B7DF08D4522
:104DA000E8508D45FC5057FF7520FF7518E8B3CBD0
:104DB000FFFF83C4148BD88B45FC3B45E80F838BE6
:104DC000000000393B7F7C3B7B047F778B4310895D
:104DD000452CC64000017E0F688000000053E8CFDC
:104DE000DCFFFF5959EB0DA120C440008A0458256F
:104DF0008000000085C0743753C1E704E844010017
:104E0000008BD859895DECFF45E4837DE0008D7C03
:104E10001FD07405FF4DF47424FF7508FF45FCE8AE
:104E2000580100008BD859895DECE95CFFFFFFFF5A
:104E30007508FF4DFC53E85B0100005959807DE97E
:104E4000007402F7DF83FE4675048365E400837D0A
:104E5000E4000F84CE000000807DF2007529FF453C
:104E6000CC837DD00074108B45D48B4DD889088BB2
:104E70004DDC894804EB10807DF3008B45D474042D
:104E80008938EB03668938FE45EBFF450C8B750CC2
:104E9000EB42FF45FC57E8E10000008BD8590FB604
:104EA00006463BC3895DEC89750C75558B0D20C496
:104EB00040000FB6C3F6444101807418FF45FC570B
:104EC000E8B7000000590FB60E463BC889750C754F
:104ED0003EFF4DFC837DECFF7510803E25754D8BAC
:104EE000450C8078016E75448BF08A0684C00F856E
:104EF00056F6FFFFEB30FF7508FF4DFCFF75ECEB3E
:104F000005FF4DFC5753E88B0000005959EB17FF84
:104F10004DFC5750E87D000000FF4DFC5753E873EF
:104F200000000083C410837DECFF75118B45CC8598
:104F3000C0750D3845EB750883C8FFEB038B45CC76
:104F40005F5E5BC9C3833D2CC6400001567E108B5B
:104F50007424086A0456E857DBFFFF5959EB0F8B9E
:104F6000742408A120C440008A047083E00485C032
:104F7000750683E6DF83EE078BC65EC38B5424047D
:104F8000FF4A0478098B0A0FB60141890AC352E827
:104F9000ADE9FFFF59C3837C2404FF740FFF742421
:104FA00008FF742408E8962100005959C3568B74F1
:104FB000240857FF742410FF06E8BEFFFFFF8BF89C
:104FC00057E8EE2000005985C05975E78BC75F5E32
:104FD000C3064646EB038806468975D4E964FFFF9D
:104FE000FFFF45D0E95CFFFFFFFF4DFC5750E8A3F2
:104FF00003000059593975D00F8428030000807DC3
:10500000F2000F857F020000FF45CC837DC4630F53
:105010008472020000807DEA008B45D474096683A7
:105020002000E960020000802000E958020000C66C
:1050300045F3018B5DEC83FB2D7506C645E901EB5D
:105040000583FB2B7522FF4DF4750C837DE0007406
:1050500006C645F101EB11FF7508FF45FCE81A0390
:105060000000598BD8895DEC837DD0000F840F013F
:105070000000807DF1000F85E300000083FE78755D
:105080004F833D2CC64000017E0F68800000005316
:10509000E81DDEFFFF5959EB0DA120C440008A0432
:1050A00058258000000085C00F84A30000008B45B8
:1050B000D88B55DC6A0459E865240000538945D82B
:1050C0008955DCE87D0200008BD859895DECEB53F3
:1050D000833D2CC64000017E0C6A0453E8D1DDFFFD
:1050E000FF5959EB0BA120C440008A045883E00407
:1050F00085C0745D83FE6F751583FB387D538B45CA
:10510000D88B55DC6A0359E815240000EB0F6A00C0
:105110006A0AFF75DCFF75D8E8C42300008945D80A
:105120008955DCFF45E48D43D0990145D81155DC04
:10513000837DE0007405FF4DF47424FF7508FF457E
:10514000FCE8360200008BD859895DECE92BFFFFA3
:10515000FFFF7508FF4DFC53E839020000595980E4
:105160007DE9000F84DC0000008B45D88B4DDCF717
:10517000D883D1008945D8F7D9894DDCE9C400002E
:1051800000807DF1000F85B200000083FE78743F3F
:1051900083FE70743A833D2CC64000017E0C6A0485
:1051A00053E80CDDFFFF5959EB0BA120C440008AE6
:1051B000045883E00485C0747683FE6F750A83FB10
:1051C000387D6CC1E703EB3F8D3CBFD1E7EB388303
:1051D0003DFB007E04C645EA018B7D0C47897D0CB2
:1051E000803F5E0F85A70000008BC78D7801E9998D
:1051F00000000083FB2B7522FF4DF4750C837DE0CE
:10520000007406C645F101EB11FF7508FF45FCE887
:10521000680500008BD859895DEC83FB300F85450C
:10522000020000FF7508FF45FCE84E0500008BD822
:105230005980FB78895DEC742F80FB58742A83FEBB
:1052400078C745E40100000074086A6F5EE9160241
:105250000000FF7508FF4DFC53E838050000595960
:105260006A305BE9FD010000FF7508FF45FCE809B5
:10527000050000598BD8895DEC6A78EBCF807DFB07
:10528000007E04C645EA01BFD8C84000804DE8FF53
:105290006A208D459C6A0050E8A4E1FFFF83C40C9E
:1052A000837DC47B750E803F5D7509B25D47C64541
:1052B000A720EB038A55CB8A073C5D745F473C2DE2
:1052C000754184D2743D8A0F80F95D7436473AD1B6
:1052D00073048AC1EB048AC28AD13AD077210FB60F
:1052E000D20FB6F02BF2468BCA8BC283E107B30113
:1052F000C1E803D2E38D44059C0818424E75E8329C
:10530000D2EBB40FB6C88AD08BC183E107B301C119
:10531000E803D2E38D44059C0818EB9B803F000F07
:105320008401040000837DC47B7503897D0C8B7D23
:10533000088B75D4FF4DFC57FF75EC8975D0E85389
:105340000400005959837DE000740E8B45F4FF4D35
:10535000F485C00F849C000000FF45FC57E81A0448
:10536000000083F8FF598945EC747E8BC86A01837D
:10537000E1075A0FBE5DE8D3E28BC8C1F9030FBE47
:105380004C0D9C33CB85D17460807DF200755280CA
:105390007DEA0074418B0D20C440008845C80FB6DB
:1053A000C0F644410180740DFF45FC57E8CB030073
:1053B00000598845C9FF352CC640008D45C8508D21
:1053C00045C250E824240000668B45C283C40C66A5
:1053D000892CC64000017E0C6A0453E8D2E2FFFF2C
:1053E0005959EB0BA120C440008A045883E004857E
:1053F000C074218B45F4FF4DF485C07417FF45E45C
:10540000881E46FF45FC57E8700700008BD8598975
:105410005DECEBBB381D30C6400075668B45F4FF74
:105420004DF485C0745CFF45FC57E84D0700008BC8
:10543000D8A030C64000880659895DEC46833D2CD3
:10544000C64000017E0C6A0453E864E2FFFF59592C
:10545000EB0BA120C440008A045883E00485C0748B
:10546000218B45F4FF4DF485C07417FF45E4881E79
:1054700046FF45FC57E8020700008BD859895DECD0
:10548000EBBB837DE4000F848E00000083FB65741A
:105490000983FB450F85800000008B45F4FF4DF428
:1054A00085C07476C6066546FF45FC57E8CB060006
:1054B000008BD85983FB2D895DEC7505880646EB7A
:1054C0000583FB2B751E8B45F4FF4DF485C07505D8
:1054D0002145F4EB0FFF45FC57E89E0600008BD8F2
:1054E00059895DEC833D2CC64000017E0C6A045353
:1054F000E8BDE1FFFF5959EB0BA120C440008A042D
:105500005883E00485C074128B45F4FF4DF485C0C8
:105510007408FF45E4881E46EBBBFF4DFC5753E87B
:1055200072060000837DE40059590F84F6050000DF
:10553000807DF2000F854D050000FF45CC802600E0
:105540008D853CFEFFFF500FBE45F3FF75D44850DC
:10555000FF1528CA400083C40CE92905000039451D
:10556000E0750AFF45F4C745E001000000807DFBBF
:10557000007E04C645EA01BFE0C84000E90B010017
:10558000008BC683E8700F84A302000083E8030F3A
:1055900084E800000048480F849602000083E80376
:1055A0000F84C3FDFFFF83E80374240FB6033B455C
:1055B000EC0F853F050000FE4DEB807DF2000F856E
:1055C000C30400008B45BC894510E9B80400008085
:1055D0007D33FF8065FB00895DE4895DE0895DF4D2
:1055E000C645F301895DD00FB65E0146833D2CC6EA
:1055F0004000017E0F0FB6C36A0450E8B2E4FFFF1B
:105600005959EB0F8B0D20C440000FB6C38A0441DB
:1056100083E00485C074128B45F4FF45E08D04805F
:105620008D4443D08945F4EB6583FB4E7F3E745E29
:1056300083FB2A743283FB46745483FB49740A83C8
:10564000FB4C7537FE45F3EB45807E0136752C80AB
:105650007E02348D46027523FF45D08365D80083D2
:1056600065DC008BF0EB27FE45F2EB2283FB6874D0
:105670001783FB6C740A83FB777408FE45F1EB0E0D
:10568000FE45F3FE45FBEB06FE4DF3FE4DFB807D34
:10569000F1000F844FFFFFFF807DF20089750C75CC
:1056A000128B45108945BC83C0048945108B40FC92
:1056B0008945D48065F100807DFB0075148A063C25
:1056C00053740A3C437406804DFBFFEB04C645FB54
:1056D000018B5D0C0FB63383CE2083FE6E8975C4BB
:1056E000742883FE63741483FE7B740FFF75088D2A
:1056F00045FC50E8B508000059EB0BFF7508FF4565
:10570000FCE876080000598945EC33C03945E0745F
:10571000093945F40F84DC07000083FE6F0F8F5EAC
:105720000200000F840A05000083FE630F842C0230
:10573000000083FE640F84F80400000F8E6A0200EC
:105740000083FE677E3883FE69741B83FE6E0F85BF
:1057500057020000807DF2008B7DFC0F8400070063
:1057600000E9210700006A645E8B5DEC83FB2D0F6E
:10577000857E020000C645E901E97A0200008B5DE2
:10578000EC8DB53CFEFFFF83FB2D750E889D3CFE26
:10579000FFFF8DB53DFEFFFFEB0583FB2B75178BE0
:1057A0007D08FF4DF4FF45FC57E8CE0700008BD87D
:1057B00059895DECEB038B7D08837DE000740981E2
:1057C0007DF45D0100007E07C745F45D01000083A4
:1057D0003D83C40C8B0303C6F64004800F84C100D4
:1057E00000008B450C397D108945FC897D080F86AA
:1057F000E70000008D85ECFBFFFF8B4DFC2B4D0C73
:105800003B4D1073298B4DFCFF45FC8A0980F90A3A
:105810007507FF45F0C6000D408808408BC88D9580
:10582000ECFBFFFF2BCA81F9000400007CCC8BF855
:105830008D85ECFBFFFF2BF88D45F46A00508D85BC
:10584000ECFBFFFF57508B03FF3430FF1528A040BF
:105850000085C074438B45F40145F83BC77C0B8B36
:1058600045FC2B450C3B4510728A33FF8B45F83BBA
:10587000C70F858B000000397D08745F6A055839B1
:105880004508754CC7053CCD400009000000A34009
:10589000CD4000E980000000FF1574A0400089455C
:1058A00008EBC78D4DF45751FF7510FF750CFF3095
:1058B000FF1528A0400085C0740B8B45F4897D0836
:1058C0008945F8EBA7FF1574A04000894508EB9CBB
:1058D000FF7508E8DA25000059EB3D8B03F64430EC
:1058E0000440740C8B450C80381A0F84CDFEFFFFEA
:1058F000C7053CCD40001C000000893D40CD400064
:10590000EB162B45F0EB14832540CD400000C70576
:105910003CCD40000900000083C8FF5F5E5BC9C347
:10592000558BEC81ECC40100008065EB0053568B75
:10593000750C33DB578A06895DFC84C0895DCC0F0A
:1059400084E10900008B7D08EB058B7D0833DB8348
:105950003D2CC64000017E0F0FB6C06A0850E84FCC
:10596000E5FFFF5959EB0F8B0D20C440000FB6C067
:105970008A044183E0083BC37436FF4DFC578D45D4
:10598000FC5750E8250A0000595950E8060A000063
:105990000FB646014650E8192B000083C40C85C0A1
:1059A000740E0FB646014650E8072B000059EBEE87
:1059B000803E250F85D90800008065CB008065E812
:1059C000008065E9008065F2008065F1008065EA8D
:1059D0000001473AC30F84E30000003BD30F84DB90
:1059E0000000000FBEC083F8547F72746083E82B00
:1059F000744583E819743683E80E741C480F85AC2F
:105A0000000000395DFC0F85A3000000C745FC01C4
:105A100000000083C920EBB7395DFC0F858E0000C4
:105A200000C745FC0100000083C910EBA2F6C1408D
:105A3000757D83C940EB98F6C102757383E1FE83DF
:105A4000E6FC83C90281CE80000000EB82B8001022
:105A5000000085C875590BC8E972FFFFFF83E86233
:105A6000744848742E83E80B741283E8067540F678
:105A7000C5C0753B80CD40E953FFFFFF395DF87528
:105A80002EC745F80100000081E6FFBFFFFFE93C9B
:105A9000FFFFFF395DF87517C745F8010000008169
:105AA000CE00400000E925FFFFFFF6C5C0740733B4
:105AB000D2E919FFFFFF80CD80E911FFFFFF68A445
:105AC000010000FF751051FF7508E8642A00008B83
:105AD000C883C4103BCB7D0433C0EB1A8B4514FF45
