:10000000ECC0000006C1000004C1000002C10000F5
:1000100000C10000FEC00000FCC00000FAC00000EB
:10002000F8C00000F6C00000F4C000000C94F6090F
:100030000C94A30AD3C20000ECC00000EAC0000088
:10004000E8C00000E6C00000BFC20000E2C000003F
:10005000E0C00000DEC00000DCC0000037C20000CD
:10006000D8C00000D6C00000D4C00000D2C000003C
:10007000D0C00000FA0A1C0BD70B1C0BD70B5E0B71
:100080007D0BD70B9D0BAF0B3C034D006100740043
:1000900069006100730020004E006F00740065006D
:1000A00062006F006F006B002000500072006F0054
:1000B00020004B006500790062006F006100720053
:1000C000640000000E034D006100740069006100CF
:1000D00073000000040309040902520003010080B8
:1000E000320904020002080650000705830240009E
:1000F000000705040240000009040000010301019B
:1001000000092111010001223F00070581030800B9
:100110000A09040100010301010009211101000184
:100120002223000705820308000A09023B0002019E
:1001300000803209040000010301010009211101BE
:100140000001223F000705810308000A090401009D
:10015000010301010009211101000122230007050B
:10016000820308000A1201100100000008D904509F
:10017000420000010200010600FF0901A101150073
:1001800026FF008501750895400900B2020185022D
:10019000751095800900B20201C005010906A10190
:1001A00075019508050719E029E715002501810269
:1001B0009501750881039505750105081901290543
:1001C0009102950175039103950675081500256543
:1001D0000507190029658100C00011241FBECFEF5B
:1001E000D2E0DEBFCDBF11E0A0E0B1E0E6E2FFE18A
:1001F00002C005900D92A83DB107D9F712E0A8ED15
:10020000B1E001C01D92A130B107E1F7B5D10C9466
:10021000910FF6CE9BB18095906389238BB9089599
:1002200084B7877F84BF88E10FB6F894809360001D
:10023000109260000FBE90E080E80FB6F8948093B3
:100240006100909361000FBE8AB180638AB98BB15F
:1002500080638BB980E190E09093CD008093CC00D7
:1002600086E08093CA0082E08093C80088E1809392
:10027000C900539A5A9A0E94EB0984E085BD5F9A9F
:10028000579A089580E1C6CF80E2C4CF80E091E024
:100290000E94170E811102C080E2BCDF84E491E06D
:1002A0000E940F0D811102C080E2B4DF87E391E06C
:1002B0000E940F0D811102C080E2ACDF8091E2004C
:1002C00084608093E2000895AF92BF92CF92DF9254
:1002D000EF92FF920F931F93CF93DF93CDB7DEB7CB
:1002E000C154D1090FB6F894DEBF0FBECDBF8091C7
:1002F000FD019091FE01019709F088C08091F901FC
:10030000982F9076903209F081C0982F9F7191308C
:1003100009F07CC00091FF011091000287FD41C0EF
:100320008091E800877F8093E800C801805C9F4F40
:1003300061E470E00E94470F5B01C12CD12CCA140C
:10034000DB0469F10134110520F081E4E82EF12C81
:1003500001C07801B701CE010196B9D78DEB91E0CC
:100360000E943A0FFE01329681E090E08C0F9D1FB3
:100370008E0D9F1DE817F90741F021913091C800BB
:1003800035FFFCCF2093CE00F5CF83ED91E00E94A6
:100390003A0F0E191F098FEFC81AD80AD0CFF4D51B
:1003A00037C08E010F5F1F4F81E4F80111928A95CB
:1003B000E9F781EC91E00E943A0F8091E800877F95
:1003C0008093E8001092E900F801CE018F5B9F4F07
:1003D0002091C80027FFFCCF2091C80027FFFCCF49
:1003E0002091CE002193E817F90791F760E470E0BF
:1003F000C801B6D68091E8008B778093E8008091A1
:10040000D901813029F48093D80103C080E001C074
:1004100081E0CF5BDF4F0FB6F894DEBF0FBECDBFDC
:10042000DF91CF911F910F91FF90EF90DF90CF90D0
:10043000BF90AF90089580E091E00E94E30D84E4C6
:1004400091E00E94F30B40CFCF93DF93EC0180E16A
:10045000E1DECE0193D2C82F80E1DCDE8C2FDF916C
:10046000CF91089580914F0190915001009729F00C
:1004700001979093500180934F0180914201909198
:100480004301009729F00197909343018093420123
:1004900008950F931F93F8011182108280E01F913D
:1004A0000F910895CF93DF93E90186EC91E00E94CC
:1004B0003A0F88819091C80095FFFCCF8093CE00C1
:1004C00083ED91E0DF91CF910C943A0F1F920F9240
:1004D0000FB60F9211240F900FBE0F901F9018951A
:1004E000E0EEF0E08081816080832FEF87EA91E683
:1004F000215080409040E1F700C0000081E08093EF
:10050000D901E0EEF0E080818E7F80830895E0EEF7
:10051000F0E08081816080832FEF87EA91E62150AF
:1005200080409040E1F700C000001092D901109285
:10053000D801E0EEF0E080818E7F80830895F8940A
:100540008FEC91E00E943A0F8091C80087FFFCCFAA
:100550008091C80087FFFCCF8091CE0078948130D5
:1005600009F4BECF8091D901813029F48091D8015E
:10057000813009F4CCCF089553DE80E24BDE7894CD
:100580002FEF87EA91E6215080409040E1F700C0CC
:100590000000C0E0D0E000E117E280E091E00E94BE
:1005A000510E84E491E00E94320D87E391E00E94B5
:1005B000320D0E94E10B2196CE01B8010E945B0F23
:1005C000892B59F7BCDFE9CF1F920F920FB60F921C
:1005D00011240F900FBE0F901F9018951F920F922D
:1005E0000FB60F9211240F900FBE0F901F90189509
:1005F0000F931F93CF93DF93FC01CB01009721F45E
:1006000080E38083118220C0EF010AE010E0B8018E
:100610000E945B0F805D89939E012E1B3F0BCB01D7
:100620000097A9F7EF01C20FD31F188235952795C0
:10063000DF01CD018E1B9F0B821793072CF48C9149
:100640009A919D938883F5CFDF91CF911F910F9160
:100650000895292F332723303105C1F03CF4213090
:100660003105C9F12230310541F03FC02132310559
:1006700011F12232310541F138C08091D901811147
:100680002FC08BE390E02AE231E03DC09927813012
:10069000910541F08230910541F0892B31F5E4ED6F
:1006A000F0E005C0E4ECF0E002C0E8E8F0E084919E
:1006B00090E09F0128C08091D90181111BC089E081
:1006C00090E02CE331E01FC06130C9F483E290E098
:1006D00027E731E018C082E190E025E631E013C061
:1006E00082E590E028ED30E00EC080E090E020E070
:1006F00030E009C089E090E021E031E004C08FE300
:1007000090E02AE931E0FA01318320830895EF92E5
:10071000FF920F931F93CF93DF937C01E90155D490
:1007200081112CC0209709F100E012E08091E800CF
:1007300085FF07C08091F100F70186A9882351F059
:100740000EC08091E8008B778093E8003ED4882328
:1007500089F314C0015011090115110539F7F7018A
:1007600086A981110BC02197DDCF8091E80085FD1E
:1007700005C08091E8008B778093E800DF91CF91EE
:100780001F910F91FF90EF9008952F923F924F92FB
:100790005F926F927F928F929F92AF92BF92CF9211
:1007A000DF92EF92FF920F931F93CF93DF93CDB71A
:1007B000DEB7A0970FB6F894DEBF0FBECDBF7C01A9
:1007C0001A012B01490101D481116CC000E010E035
:1007D0005E0181E2A80EB11C0815190509F459C083
:1007E000F894B801620D731DCE01019601DF85ED0D
:1007F00091E00E943A0FCE0101960E943A0F83ECDD
:1008000091E00E943A0F81E1C82ED12CF1E0CF1A7D
:10081000D108C114D104A9F18091C80085FFFCCF93
:1008200093E79093CE00FE013196EA15FB0541F067
:100830008091C80087FFFCCF8091CE008193F5CFD7
:10084000F70186A98111E2CFCE0101963C016A141D
:100850007B04E1F28091E80085FF0AC0F3018191F9
:100860003F018093F100F70186A9882381F3CECF61
:100870008091E8008E778093E800A7D3882371F3F6
:10088000C5CF7894F70186A981110CC00F5F1F4F67
:10089000A3CF8091E80085FD05C08091E8008E77A8
:1008A0008093E800A0960FB6F894DEBF0FBECDBFD0
:1008B000DF91CF911F910F91FF90EF90DF90CF903C
:1008C000BF90AF909F908F907F906F905F904F9070
:1008D0003F902F900895EF92FF920F931F93CF9325
:1008E000DF93EC01E62F0E8D1D8D2C8D3B8DE9A045
:1008F000F8A0043611052105310568F080915301F7
:10090000807F85608093530181E280935D01109226
:100910005E0180E02CC0C701880F991F880F991FC6
:10092000B901A801F2E0440F551F661F771FFA9521
:10093000D1F79C01CE01EE2311F027DF01C0E7DEE5
:10094000870120E030E09BE0000F111F221F331FC2
:100950009A95D1F74A895B896C897D89401B510B37
:10096000620B730B4A8B5B8B6C8B7D8B81E0DF9111
:10097000CF911F910F91FF90EF9008957F928F92EA
:100980009F92AF92BF92CF92DF92EF92FF920F931E
:100990001F93CF93DF93CDB7DEB7A8970FB6F89428
:1009A000DEBF0FBECDBF8C01EDB6FEB690915301F8
:1009B000907F9093530110925D0110925E01F801B7
:1009C000818D8F3209F474C2E0F48D3109F4E0C0F6
:1009D00040F4833009F47FC0823181F181116EC20D
:1009E00067C2853209F4B5C020F48E3109F460C2C3
:1009F00065C2883209F4D5C08A3209F05FC260E06E
:100A0000D1C0813509F415C250F4833409F43CC1D6
:100A1000863409F4CAC0853309F050C249C28A3508
:100A200009F4C8C120F4853509F454C247C28B3B90
:100A300009F43EC28E3B09F4B4C040C2ADB6BEB6A6
:100A4000F801858C948C828D837019F4838D8823B2
:100A500059F080915301807F85608093530184E237
:100A600080935D0180E031C06401F5E28F1691044E
:100A700018F0B4E2CB2ED12C40E050E0B60185E76F
:100A800091E0D2D2B4016C197D098DB79EB7861B57
:100A9000970B0FB6F8949EBF0FBE8DBF019640E036
:100AA00050E0C2D28091E8008E778093E800F80190
:100AB00082899389A489B5898C199D09A109B109F5
:100AC000828B938BA48BB58B81E00FB6F894BEBE5E
:100AD0000FBEADBEFDC1CDB6DEB6F801858D782E58
:100AE000833110F0A2E17A2EA82EB12C672D70E090
:100AF000A61AB70A8DB79EB78A199B090FB6F89444
:100B00009EBF0FBE8DBFEDB7FEB731964F0140E0DF
:100B100050E081E591E088D240E050E0B501C401A9
:100B200083D28091E8008E778093E800F801828973
:100B30009389A489B58987199109A109B109828B83
:100B4000938BA48BB58B0FB6F894DEBE0FBECDBED3
:100B5000C1C18FEF9FE1A3E0B0E089A39AA3ABA34B
:100B6000BCA380E098E0A0E0B0E089839A83AB83E7
:100B7000BC8340E050E064E070E0CE01819684D216
:100B800040E050E064E070E0CE0101967DD226C0E6
:100B9000F801828D82FD8CC195609093530184E2AF
:100BA00094C161E0C80197DE93C1F801838D811182
:100BB00027C0948D911124C019821A821B8284E06F
:100BC0008C831D8288E08E8381E08F83188640E0CD
:100BD00050E068E070E0CE01019626D28091E800F6
:100BE0008E778093E800F80182899389A489B5897A
:100BF0000897A109B109828B938BA48BB58B6AC12D
:100C0000F801928D9230C9F5813081F4948D98303D
:100C1000A1F589839A831B8284E08C831D8288EAF4
:100C20008E8385E58F8384EA8887D1CF811125C0A3
:100C3000F801848D833039F419828A838B8384E0B0
:100C40008C8388E20EC08D3119F419828A8317C013
:100C50008E3159F419828A8387E08B8384E08C83F8
:100C600081E08D831E821F82B1CF8F3131F41982D2
:100C70008A831B8284E08C8304C019821A821B82BF
:100C80001C8240E050E026C0F801828D811135C001
:100C9000838D811169C0198282E18A8381E08B830F
:100CA0008C831D8294E19E838F83188619861A8611
:100CB0001B861C861D869E878AEA8F87188A198A5A
:100CC00083E08A8B80E28B8B1C8A81A140E050E01C
:100CD0008430B9F564E070E0CE010196A5D1809131
:100CE000E8008E778093E800F80182899389A489CF
:100CF000B5890497A109B1097ECF823009F0EAC015
:100D0000F801838D8111E6C0198282E18A8381E036
:100D10008B838C831D8294E09E838F831886198633
:100D20001A861B861C861D869E878AEA8F87188AEC
:100D3000198A89E58A8B8BE38B8B8FE48C8B40E05F
:100D400050E064E170E0CE0101966ED18091E80040
:100D50008E778093E800F80182899389A489B58908
:100D60004497A109B10947CF813009F0B3C0198276
:100D70009AE09A838B838C831D8294E09E838F8379
:100D8000188619861A861B861C8640E050E06CE0A7
:100D900070E0CE01019648D18091E8008E77809373
:100DA000E800F80182899389A489B5890C97A10983
:100DB000B10921CF19A21AA21BA282E18CA31DA204
:100DC0001EA21FA218A69AE299838A831B821C8204
:100DD00080E78D831E821F82188694E0998780E2C7
:100DE0008A8721E02B871C861D861E869F87888B1D
:100DF00082E0898B1A8A1B8A1C8A40E050E068E0F6
:100E000070E0CE01819610D140E050E064E170E0E6
:100E1000CE01019609D18091E8008E778093E80099
:100E2000F80182899389A489B5894C97A109B109F0
:100E3000E2CE198280E28A838EE08B8381E08C830C
:100E40008D838E838F8380E8888719861A861B8618
:100E50001C861D861E861F86188A8FEF898B8A8BBB
:100E60008B8B8C8B8D8B8E8B8F8B888F198E1A8EA4
:100E70001B8E1C8E1D8E1E8E1F8E18A240E050E011
:100E800060E270E0CE010196CFD08091E8008E77CD
:100E90008093E800F801428953896489758940523A
:100EA000510961097109428B538B648B758B12C098
:100EB000F801128A138A148A158A0CC08091530192
:100EC000807F85608093530180E280935D010DC037
:100ED000882359F080915301807F809353011092B1
:100EE0005D0110925E0181E001C080E00FB6F894D0
:100EF000FEBE0FBEEDBEA8960FB6F894DEBF0FBEC5
:100F0000CDBFDF91CF911F910F91FF90EF90DF90B8
:100F1000CF90BF90AF909F908F907F90089528E0E2
:100F200030E040E02817390720F44F5F220F331FCD
:100F3000F9CF842F8295807F08958093E900EBEEAE
:100F4000F0E0808181608083EDEEF0E010826093BC
:100F5000EC0040838091EE00881F8827881F089549
:100F60001092F40080E08093E9001092F00010925B
:100F7000E8001092ED009091EB009E7F9093EB00C3
:100F80008F5F853081F708958091F90187FD05C055
:100F90008091E80080FF0EC012C08091E80082FDC1
:100FA00005C08091F8018111F8CF08958091E80083
:100FB0008B7708C08091F8018111EACF0895809164
:100FC000E8008E778093E800089585E69091EC0024
:100FD00090FF05C09091E80090FF05C01DC0909162
:100FE000E80092FD19C09091F8019923B9F0909111
:100FF000F8019530A9F09091EB0095FD13C0909108
:10100000E10092FFE3CF9091E1009B7F9093E1009C
:101010008150E1F684E0089580E0089582E008952B
:1010200083E0089581E00895EF92FF920F931F935C
:10103000CF93DF93EC018B017A01C7DF81111DC0D3
:1010400001151105C9F08091E80085FD0EC0809161
:10105000E8008E778093E800E114F10471F3F70162
:101060000995813051F785E008C088818093F100AF
:10107000015011092196E4CF80E0DF91CF911F91BB
:101080000F91FF90EF900895CF92DF92EF92FF9231
:101090000F931F93CF93DF936C018B017A0195DF40
:1010A000811125C0E8012197CC0DDD1D0115110529
:1010B000E9F08091E80085FD12C08091E8008E770C
:1010C0008093E800E114F10421F47FDF882371F3B9
:1010D0000EC0F70109958130C1F785E008C088810D
:1010E0008093F100015011092197E0CF80E0DF915A
:1010F000CF911F910F91FF90EF90DF90CF900895C7
:10110000EF92FF920F931F93CF93DF93EC018B012C
:101110007A015BDF81111DC001151105C9F08091B5
:10112000E80085FD0EC08091E8008B778093E80091
:10113000E114F10471F3F7010995813051F785E06D
:1011400008C08091F1008883015011092196E4CFF5
:1011500080E0DF91CF911F910F91FF90EF90089564
:101160002091FF01309100022617370748F06115E2
:10117000710539F42091E8002E772093E80001C032
:10118000B90130E061157105A1F12091E80023FD5E
:101190003CC02091E80022FF06C08091E80082FF59
:1011A0002BC080E008952091F801222381F1209145
:1011B000F801253071F12091E80020FFE3CF209164
:1011C000F200FC01CF016115710549F0283038F4B7
:1011D00081918093F100615071092F5FF3CF31E06D
:1011E000283009F030E02091E8002E772093E800C5
:1011F000C9CF3111CACFD1CF8091F801882339F0FE
:101200008091F801853049F604C081E0089582E0BC
:10121000089583E008952091FF0130910002261780
:10122000370748F06115710539F42091E8002E77F1
:101230002093E80001C0B90130E061157105A9F102
:101240002091E80023FD3DC02091E80022FF06C068
:101250008091E80082FF2CC080E008952091F80181
:10126000222389F12091F801253079F12091E800BD
:1012700020FFE3CF2091F200FC01CF016115710541
:1012800051F0283040F484918093F100615071094D
:101290002F5F3196F2CF31E0283009F030E0209115
:1012A000E8002E772093E800C8CF3111C9CFD0CF06
:1012B0008091F801882339F08091F801853041F65A
:1012C00004C081E0089582E0089583E008956115E7
:1012D000710529F42091E8002B772093E80061152F
:1012E000710569F12091E80023FD2EC02091F801DD
:1012F000222371F12091F801253061F12091E8005D
:1013000022FFF0CFFC018091F200882371F09F0151
:101310002F5F3F4FC9014091F10040836150710937
:1013200061157105B9F2F901EECFCF01D3CF8091EC
:10133000F801882369F08091F801853059F0809197
:10134000E80080FFF4CF02C081E0089580E00895B6
:1013500082E0089583E0089543D045D01092F801CB
:101360001092F6011092F5011092F40184E089BD0B
:1013700089B5826089BD09B400FEFDCF8091D80097
:10138000982F9F779093D80080688093D8008091A1
:1013900063008E7F809363008091D8008F7D80935F
:1013A000D8008091E0008E7F8093E0008091E10082
:1013B0008E7F8093E1008091E20081608093E20063
:1013C0008091E100877F8093E1008091E200886056
:1013D0008093E2000895C0DF81E08093F7010895D3
:1013E0001092E20008951092E10008951F920F926A
:1013F0000FB60F9211242F933F934F935F936F93E8
:101400007F938F939F93AF93BF93EF93FF938091BD
:10141000E10080FF1DC08091E20080FF19C0809133
:10142000E1008E7F8093E1008091E2008E7F8093C7
:10143000E2008091E20080618093E2008091D80018
:1014400080628093D80019BC1092F8010E94440178
:101450008091E10084FF2BC08091E20084FF27C0CF
:1014600084E089BD89B5826089BD09B400FEFDCFE5
:101470008091D8008F7D8093D8008091E1008F7E8D
:101480008093E1008091E2008F7E8093E200809162
:10149000E20081608093E2008091F601882311F0E0
:1014A00084E001C081E08093F8010E9442018091B4
:1014B000E10083FF28C08091E20083FF24C0809177
:1014C000E100877F8093E10082E08093F801109231
:1014D000F6018091E1008E7F8093E1008091E2002F
:1014E0008E7F8093E2008091E20080618093E20031
:1014F00037DD42E060E080E020DD8091F000886030
:101500008093F0005DD18091E10082FF0BC080915B
:10151000E20082FF07C08091E1008B7F8093E100B1
:101520000E943202FF91EF91BF91AF919F918F91F5
:101530007F916F915F914F913F912F910F900FBECF
:101540000F901F9018951F920F920FB60F921124B3
:101550002F933F934F935F936F937F938F939F93BB
:10156000AF93BF93CF93EF93FF93E9EEF0E0C08189
:10157000C7701082E0EFF0E08081877F80837894ED
:101580001CD0F894E9EEF0E01082A0EFB0E08C916E
:1015900088608C93C083FF91EF91CF91BF91AF9101
:1015A0009F918F917F916F915F914F913F912F917B
:1015B0000F900FBE0F901F9018951F93CF93DF933E
:1015C00000D0CDB7DEB7E9EFF1E08091F100819373
:1015D00082E0E130F807C9F72091F9013091FA0172
:1015E000832F90E08A30910508F0E1C0FC01E65CB1
:1015F000FF4F74C4203881F0223809F0D8C08091A0
:10160000FD0187708093E9008091EB0085FB8827BE
:1016100080F91092E90006C08091F4019091F501E3
:10162000911182609091E800977F9093E8008093F9
:10163000F1001092F1008CC0822F8D7F09F0B7C0AD
:10164000222319F0223061F0A3C08091FB01813088
:1016500009F09EC0333009F080E08093F50128C086
:101660008091FB01811124C02091FD01277009F4B4
:101670008FC02093E9008091EB0080FF89C08091AA
:10168000EB00333011F4806211C080618093EB0075
:1016900081E090E0022E01C0880F0A94EAF780935F
:1016A000EA001092EA008091EB0088608093EB00E2
:1016B0001092E9008091E800877F4DC0211177C02A
:1016C0001091FB018091E800877F8093E8005CDC4B
:1016D0008091E80080FD05C08091F8018111F8CF6C
:1016E00057C0812F8F7711F093E001C092E0909363
:1016F000F80180688093E3004BC02058223008F046
:1017000056C0AE014F5F5F4F6091FD018091FB01BC
:101710009091FC010E9429030097D1F12091E800EB
:10172000277F2093E800BC0189819A8174DD809134
:10173000E8008B778093E8002BC02038C1F58091BA
:10174000E800877F8093E8008091F6018093F100A4
:101750008091E8008E778093E80016DC19C0211193
:1017600026C09091FB01923098F48091E800877F29
:101770008093E8009093F60107DC8091F6018823BE
:1017800011F084E001C083E08093F8010E944601DB
:101790008091E80083FF0EC08091EB00806280930F
:1017A000EB008091E800877F8093E80003C00E94EF
:1017B0001B02EECF0F900F90DF91CF911F910895F4
:1017C0000895CF938091F801882359F0C091E900E2
:1017D000C7701092E9008091E80083FDEEDEC093AF
:1017E000E900CF9108958F929F92AF92BF92CF92CE
:1017F000DF92EF92FF920F931F93CF93DF9300D06E
:101800001F92CDB7DEB77C01ADB6BEB68091E800C1
:1018100083FFF0C0F701808190E02091FD013091BD
:10182000FE012817390709F0E5C08091FA018330DD
:1018300009F492C030F4813071F0823009F4C2C0F2
:10184000D9C08A3009F4A7C08B3009F492C089301E
:1018500009F0D0C04DC08091F901813A09F0CAC0A9
:101860008DB69EB68091E800877F8093E8001A824B
:1018700019828091FB011091FC018B83F701478154
:1018800050E08DB79EB7841B950B0FB6F8949EBFA2
:101890000FBE8DBFEDB7FEB731966F0160E070E00F
:1018A000CF0138D34FEF410F8E010F5F1F4F9601CD
:1018B000BE016D5F7F4FC7010E944902F70185811C
:1018C0009681009721F0478150E0B6011AD310921B
:1018D000E90069817A81C60143DC8091E8008B7759
:1018E0008093E8000FB6F8949EBE0FBE8DBE82C0F6
:1018F0008091F901813209F07DC08091E800877FF5
:101900008093E8000091FF01109100029090FB018C
:101910008090FC018DB79EB7801B910B0FB6F89499
:101920009EBF0FBE8DBFEDB7FEB731966F01B801F8
:10193000CF01CDDC4FEF480D9601692DC7010E9404
:1019400052028091E8008E778093E8000FB6F894F9
:10195000BEBE0FBEADBE4EC08091F901813A09F006
:1019600049C08091E800877F8093E800F701808577
:1019700039C08091F9018132E9F58091E800877FD3
:101980008093E8009091FB0181E0911101C080E01B
:10199000F70180872EC08091F901813259F580913D
:1019A000E800877F8093E8008091FB019091FC0123
:1019B000882736E0969587953A95E1F7F701928763
:1019C000818717C08091F901813AA1F48091E800E4
:1019D000877F8093E800F7018185928596958795AA
:1019E000969587958093F1008091E8008E7780939B
:1019F000E800CADA0FB6F894BEBE0FBEADBE0F90B7
:101A00000F900F90DF91CF911F910F91FF90EF906A
:101A1000DF90CF90BF90AF909F908F900895CF931D
:101A2000DF93FC01DC01189685E0ED0119928A959F
:101A3000E9F781E0808784EF91E0928781872281B6
:101A400033818481882311F0C4E001C0C0E0D181DA
:101A5000C90165DA4C2F482B426061EC8D2FDF9174
:101A6000CF916BCA5F926F927F928F929F92AF924B
:101A7000BF92CF92DF92EF92FF920F931F93CF937B
:101A8000DF9300D01F92CDB7DEB77C01ADB6BEB6F6
:101A90008091F801843009F078C0F701818180934A
:101AA000E9008091E80085FF70C08DB69EB6478141
:101AB00050E08DB79EB7841B950B0FB6F8949EBF70
:101AC0000FBE8DBFEDB7FEB731966F011B821A8234
:101AD000198260E070E0CF011DD28E010F5F1F4FB1
:101AE000960140E0BE016D5F7F4FC7010E94490231
:101AF000682EF70181859285892B41F021E083854D
:101B00009485892B09F020E0722E01C0712CF70119
:101B1000058116810115110589F049815A81B801A5
:101B2000C601E2D155245394892B09F4512CF701B5
:101B3000478150E0B601C801E4D101C0512C298190
:101B40003A81232BE9F0611004C0511002C070FEED
:101B500017C0F7018185928594878387818180935F
:101B6000E9008B8181118093F10069817A8140E0E5
:101B700050E0C60159DA8091E8008E778093E80042
:101B80000FB6F8949EBE0FBE8DBE0FB6F894BEBEC3
:101B90000FBEADBE0F900F900F90DF91CF911F91B0
:101BA0000F91FF90EF90DF90CF90BF90AF909F90FC
:101BB0008F907F906F905F900895E091DA01F0919F
:101BC000DB0180810895FC018091E80083FF2EC035
:101BD000808190E02091FD013091FE0128173907A6
:101BE00029F58091FA018E3F71F08F3FF9F48091D1
:101BF000F9018132D9F48091E800877F8093E80071
:101C000081E086AB12C08091F901813A79F480912C
:101C1000E800877F8093E800818581508093F10000
:101C20008091E8008E778093E800AEC908950F9305
:101C30001F93CF93DF93EC01FC013A968DE2DF0115
:101C40001D928A95E9F72A813B818C81882311F0C6
:101C500014E001C010E00981C90161D9412F482B6E
:101C6000426061E8802F69D98823A9F02E813F81E5
:101C70008885882311F014E001C010E0CD81C901EE
:101C80004ED9412F482B426060E88C2FDF91CF91D5
:101C90001F910F9152C980E0DF91CF911F910F9159
:101CA00008950F931F93CF93DF93EC018091F80178
:101CB000843009F0DAC08D818093E9008091E800DA
:101CC00085FF9EC08D818093E9008E010A5C1F4FC5
:101CD0001093DB010093DA014DED5DE06FE070E001
:101CE000CE010A960DDA81118BC08A859B85AC8561
:101CF000BD8585359345A244B34461F49F898985A8
:101D0000981740F48E898F7129F4688D8FEF860FB4
:101D1000803170F08091EB0080628093EB008981CC
:101D20008093E9008091EB0080628093EB0068C0B3
:101D30001093DB010093DA0170E04DED5DE0CE0120
:101D40004996DED981115CC08091E8008B77809341
:101D5000E8008E8987FF03C089818093E900CE0166
:101D60000E94240291E098279DAB45E553E562E48B
:101D700073E549A75AA76BA77CA74E855F8568893D
:101D800079894DA75EA76FA778AB4A895B896C8973
:101D90007D8949AB5AAB6BAB7CAB913049F4452B99
:101DA000462B472B29F08091EB0080628093EB005B
:101DB0008D818093E9008091EB0085FF04C08EA99E
:101DC0008823C9F31DC089818093E9008091EB00CD
:101DD00085FF04C08EA98823C9F312C01093DB01CC
:101DE0000093DA014DED5DE06DE070E0CE01899683
:101DF0001BD9811105C08091E8008E778093E8009F
:101E00008EA9882391F181E090E09C010D8002C0B1
:101E1000220F331F0A94E2F72093EA001092EA009F
:101E2000098002C0880F991F0A94E2F78093EA00A4
:101E30001092EA008D818093E9008091EB0080612F
:101E40008093EB008091EB0088608093EB008981A8
:101E50008093E9008091EB0080618093EB0080919A
:101E6000EB0088608093EB001EAADF91CF911F9159
:101E70000F910895FC012191CF01222339F0309177
:101E8000C80035FFFCCF2093CE00F4CF0895AA1BE5
:101E9000BB1B51E107C0AA1FBB1FA617B70710F055
:101EA000A61BB70B881F991F5A95A9F78095909587
:101EB000BC01CD01089597FB072E16F4009406D0BF
:101EC00077FD08D0E4DF07FC05D03EF490958195BE
:101ED0009F4F0895709561957F4F0895EE0FFF1FF6
:101EE0000590F491E02D0994FB01DC0104C08D9173
:101EF0000190801921F441505040C8F7881B990B7C
:101F00000895FB01DC0102C001900D924150504048
:101F1000D8F70895DC0101C06D9341505040E0F7BF
:061F20000895F894FFCFC4
:101F26000203400000044000000100000000000021
:101F3600000000000000000000000000000000009B
:101F4600000000000000000000000000000000008B
:101F5600000000000000000102080000E401080083
:101F6600000000000001080000DC0108000000007D
:101F76000005000000000000240000000000000032
:101F8600000000700000000000000A0000000000D1
:101F96000000000000058002021F0000004D617471
:101FA60069617300005574696C69747920446973BA
:101FB6006B00000000302E3030008000021F000051
:101FC600004D617469617300005574696C697479B8
:101FD600204469736B00000000302E3030463B3BD6
:101FE60000433B3B3B004C3B3B004B3B3B3B0041F8
:081FF6003B3B303B00523B0075
:00000001FF
